:100000000C942E000C94E6050C9455060C94C40632
:100010000C9433070C94A2070C944B000C940D0E17
:100020000C944B000C94BB0D0C9411080C9480089C
:100030000C94EF080C945E090C94CD090C943C0AC6
:100040000C94AB0A0C941A0B0C94890B0C94F80BBF
:100050000C94670C0C94D60C0C94450D11241FBE07
:10006000CFEFD4E0DEBFCDBF11E0A0E0B1E0EAE326
:10007000F3E202C005900D92AA33B107D9F724E04C
:10008000AAE3B1E001C01D92A139B207E1F70E94D5
:1000900037040C949B110C940000E1E6F0E080E83A
:1000A00080831082E1E8F0E080818D60808310928F
:1000B000850010928400EFE6F0E08081826080830A
:1000C000E2ECF0E0F0938900E0938800A5ECB0E06A
:1000D0008C918C93A4ECB0E08C9183638C9388E931
:1000E0008093C10086E080830895FC01AB01770F07
:1000F000660B770B86859785A089B189840F951F3C
:10010000A61FB71F86879787A08BB18B80E090E0F2
:100110000895CF92DF92EF92FF920F931F93CF93A8
:10012000DF93FC01128A138A148A158A8689882330
:1001300019F0DF011A9602C0DF011696882319F024
:10014000EF01269602C0EF012A962D913C911216DE
:100150001306ACF491E08927868BC12CD12C0F2E8D
:10016000FCE2EF2EF1E0FF2EF02D8F0120E030E0D9
:10017000A90160E070E0CB010E94AD0E29C088812A
:1001800099811816190694F4C12CD12C0F2EFCE27B
:10019000EF2EF1E0FF2EF02D8F0120E030E0A901DD
:1001A00060E070E0CB010E94AD0E12C0C12CD12CDA
:1001B0000F2EF9E8EF2EF0E0FF2EF02D8F0120E05A
:1001C00030E0A90169E07DE380E090E00E94AD0E9F
:1001D00080E090E0DF91CF911F910F91FF90EF9021
:1001E000DF90CF900895CF92DF92EF92FF920F931E
:1001F0001F938C01FC0186859785A089B189892B85
:100200008A2B8B2B89F4C12CD12C0F2EF9E8EF2EE1
:10021000F0E0FF2EF02D20E030E0A90160E070E07A
:10022000CB010E94AD0E0FC00E949010C12CD12CAA
:100230000F2EF3EFEF2EF0E0FF2EF02D20E030E058
:10024000A9010E94AD0E80E090E01F910F91FF90F8
:10025000EF90DF90CF900895CF92DF92EF92FF92D0
:100260000F931F93FC012689222311F0369602C0BA
:10027000FC013A96222319F0DC011A9602C0DC0137
:10028000169620813181232B79F0FC014289538914
:10029000648975894A30510561057105B8F02D9161
:1002A0003C911216130694F4C12CD12C0F2EF3EFAF
:1002B000EF2EF0E0FF2EF02D8C0120E030E0A901C0
:1002C00060E070E0CB010E94AD0E11C0C12CD12CBA
:1002D0000F2EF0E8EF2EF1E0FF2EF02D8C0120E044
:1002E00030E0A90160E070E0CB010E94AD0E80E03B
:1002F00090E01F910F91FF90EF90DF90CF900895C5
:10030000CF92DF92EF92FF920F931F93CF93DF93E1
:10031000EC018E89882321F0CC24C394D12C04C015
:100320006894CC24C2F8D12C0C811D810F2EFBE4E3
:10033000EF2EF4E0FF2EF02D20E030E0A90160E088
:1003400070E0CB010E94AD0E0E949010675F724C6E
:100350008F4F9F4FC12CD12C0F2EF3ECEF2EF1E0DD
:10036000FF2EF02D8E0120E030E0A9010E94AD0E9D
:1003700080E090E0DF91CF911F910F91FF90EF907F
:10038000DF90CF900895CF92DF92EF92FF920F937C
:100390001F93CF93DF93EC018E859F85A889B98940
:1003A000892B8A2B8B2B89F18E89882329F06894DD
:1003B000CC24C1F8D12C04C06894CC24C3F8D12C2F
:1003C0000C811D810F2EFBE4EF2EF4E0FF2EF02DAB
:1003D00020E030E0A90160E070E0CB010E94AD0EAA
:1003E0000E9490106E5E75488F4F9F4FC12CD12C8C
:1003F0000F2EFCE2EF2EF1E0FF2EF02D8E0120E01B
:1004000030E0A9010E94AD0E10C00E949010C12CD6
:10041000D12C0F2EF3ECEF2EF1E0FF2EF02D8E01FC
:1004200020E030E0A9010E94AD0E80E090E0DF9175
:10043000CF911F910F91FF90EF90DF90CF90089593
:10044000BF92CF92DF92EF92FF920F931F93CF93C1
:10045000DF93EC0140E050E064E574E08C819D8125
:100460000E94B60FB82E80FF0BC08E819F81A88599
:10047000B9850196A11DB11D8E839F83A887B98779
:10048000B2FE0BC08A859B85AC85BD850196A11DFA
:10049000B11D8A879B87AC87BD87B1FE36C08E8130
:1004A0009F81A885B9850197A109B1098E839F8392
:1004B000A887B9878E859F85A889B9890196A11DCE
:1004C000B11D8E879F87A88BB98B8A899B89AC8940
:1004D000BD890196A11DB11D8A8B9B8BAC8BBD8BF9
:1004E0000E949010665A7D498D4F9F4FCC24CA942C
:1004F000DC2C0F2EF5E7EF2EF0E0FF2EF02D8E0115
:1005000020E030E0A9010E94AD0EB3FE36C08A851E
:100510009B85AC85BD850197A109B1098A879B8719
:10052000AC87BD878E859F85A889B9890196A11D55
:10053000B11D8E879F87A88BB98B8A899B89AC89CF
:10054000BD890196A11DB11D8A8B9B8BAC8BBD8B88
:100550000E949010665A7D498D4F9F4FCC24CA94BB
:10056000DC2C0F2EF5E7EF2EF0E0FF2EF02D8E01A4
:1005700020E030E0A9010E94AD0E80E090E0DF9124
:10058000CF911F910F91FF90EF90DF90CF90BF9090
:100590000895FC01868197810895FC0182859385E9
:1005A0000895FC01868597850895CF92DF92EF929A
:1005B000FF920F931F93CF93DF93C12CD12C0F2E5B
:1005C000FCEBEF2EF3E0FF2EF02D8C0120E030E06D
:1005D000A90160E070E0CB010E94AD0E0F2EF5ED99
:1005E000EF2EF2E0FF2EF02D20E030E0A90165E3D0
:1005F0007CE080E090E00E94AD0E80E090E0DF9132
:10060000CF911F910F91FF90EF90DF90CF900895C1
:1006100080EC8093E40087EB8093E5008FE080938B
:10062000E70008956630710508F06BC090ED980FF3
:100630009A3050F4E82FF0E0F097EE0FFF1FEB5DDB
:10064000FE4F8081918102C080E090E0FB01772322
:100650000CF43196F595E795E451FF4F6170707891
:10066000772334F4615071096E6F7F6F6F5F7F4F36
:10067000660F771F660F771F30814FE050E0062E20
:1006800002C0440F551F0A94E2F7242F2095AC01B5
:100690004F705527062E02C0440F551F0A94E2F7EB
:1006A0003223432B40833581AC01529542954F70E4
:1006B00045275F7045274F705527062E02C0440F0F
:1006C000551F0A94E2F73223432B45833285492F85
:1006D00055274F705527062E02C0440F551F0A9408
:1006E000E2F73223432B42873785892F992782955A
:1006F0008F7002C0880F991F6A95E2F72323822B1F
:10070000878708958F929F92AF92BF92CF92DF9288
:10071000EF92FF92CF93DF934B015C01EA0124E655
:1007200030E040E050E00E9419110F2EFAE0CF2E89
:10073000D12CE12CF12CF02DA70196010E9419116A
:10074000BE0180E3820F0E9412032196C501B4010D
:10075000A70196010E941911862FBE01805D0E949B
:100760001203DF91CF91FF90EF90DF90CF90BF9079
:10077000AF909F908F900895CF93DF93EC0140E06E
:1007800050E069EC72E08C819D810E94B60FBC0143
:10079000990F880B990B40E050E00E94820340E0E3
:1007A00050E061ED72E08C819D810E94B60FBC012A
:1007B000990F880B990B42E050E00E94820340E0C1
:1007C00050E06DEC72E08C819D810E94B60FBC01FF
:1007D000990F880B990B44E050E00E94820380E05F
:1007E00090E0DF91CF910895CF92DF92EF92FF9248
:1007F0000F931F93CF93DF93EC01C12CD12C0F2EBD
:10080000FCEBEF2EF3E0FF2EF02D8C0120E030E02A
:10081000A90160E070E0CB010E94AD0E0F2EF5ED56
:10082000EF2EF2E0FF2EF02D20E030E0A90160E095
:1008300070E0CB010E94AD0E0C811D810F2EF9E8F6
:10084000EF2EF0E0FF2EF02D20E030E0A90160E077
:1008500070E0CB010E94AD0E80E090E0DF91CF917F
:100860001F910F91FF90EF90DF90CF9008950E941D
:100870004D000E94080348E060E272E086E091E0EB
:100880000E94E71040E050E064EF73E080E091E008
:100890000E94021108958091C00085FFFCCF6093F3
:1008A000C60080E090E008958091C0008823E4F7BE
:1008B0008091C60090E00895CF93DF9300D000D0E0
:1008C000CDB7DEB780E090E018C0AC014F5F5F4F5E
:1008D0009A0122953295307F3227207F32272F5D73
:1008E0003D4F82959295907F9827807F9827FC01B5
:1008F000EF5DFD4F31832083CA018E3091052CF3CB
:10090000109202031092010380E090E015C0AC0148
:100910004F5F5F4F6DE1649F9001659F300D112423
:1009200024593E4F689FF001699FF00D1124E4594E
:10093000FE4F31832083CA018330910544F3109226
:10094000C4011092C3011A82198232C02DE149817B
:100950005A81249FC001259F900D1124FC01EE585F
:10096000FE4FFC83EB83CF010E945A1120E64981A0
:100970005A81249FC001259F900D112483599C4FBB
:10098000EB81FC81918B808B938B828B88E390E150
:10099000968B858B8DE1849FF001859FF00D11244E
:1009A000E459FE4F158214824F5F5F4F5A8349838B
:1009B00029813A81243031054CF2E4E0F2E01182E1
:1009C00010821582148213821282E1E6F0E080E840
:1009D00080831082109285001092840084E08093BE
:1009E000810081E080936F000F900F900F900F9027
:1009F000DF91CF910895CF93DF9300D0CDB7DEB7CD
:100A00009A83898380911D0190911E0106960E9410
:100A10005A11892B59F489819A8190931E018093F0
:100A20001D0161E070E006960E947A110F900F9010
:100A3000DF91CF9108950F931F93CF93DF93DC0144
:100A4000CB01EB01E881F981C0E0D0E004C0EF0107
:100A50000190F081E02D309779F006811781208593
:100A6000318516964D915D916D917C911997401746
:100A70005107620773075CF71196FC93EE9320977A
:100A800021F4FC01B183A08302C0B983A883DF9164
:100A9000CF911F910F9108950F931F93CF93DF93E1
:100AA000DC01CB01EB01E881F981C0E0D0E004C0BA
:100AB000EF010190F081E02D309779F002811381F0
:100AC0002481358112964D915D916D917C911597A0
:100AD00040175107620773075CF71196FC93EE937A
:100AE000209721F4FC01B183A08302C0B983A883BD
:100AF000DF91CF911F910F910895DC01ED91FC9151
:100B00001197309759F48FEF8093EC008093ED00AC
:100B10008093EE0081E083BF8895FCCF20813181F6
:100B20002D933C93CF010895FB0120813181FC017D
:100B300031832083FB01918380830895FB01208111
:100B40003181FC0131832083FB01918380830895EF
:100B5000DC01ED91FC911197208131812D933C9323
:100B6000CF010895CF93DF93E0911F01F091200111
:100B7000C281D381E0914601F0914701309719F18C
:100B80008091210190912201892BE9F0209769F051
:100B900086819781A085B1854E815F816885798541
:100BA000841B950BA60BB70B72F481E291E00E94B7
:100BB000A8056FE171E00E949E0580911F01909150
:100BC00020010E94FB04DF91CF9108951F920F92A4
:100BD0000FB60F9211240F931F932F933F934F93B0
:100BE0005F936F937F938F939F93AF93BF93EF9395
:100BF000FF9380913E0190913F01AC01092E000CC2
:100C0000660B770B9A0111270027409184005091C1
:100C1000850060E070E0402B512B622B732B4093DA
:100C20004001509341016093420170934301B09B96
:100C30001AC00196092E000CAA0BBB0BBC0155274C
:100C400044278091840090918500A0E0B0E0842B3F
:100C5000952BA62BB72B8093400190934101A09335
:100C60004201B0934301E091E001F091E10130973E
:100C700039F060E070E08091480190914901099558
:100C80000E94B205FF91EF91BF91AF919F918F911B
:100C90007F916F915F914F913F912F911F910F9194
:100CA0000F900FBE0F901F9018951F920F920FB6C6
:100CB0000F9211240F931F932F933F934F935F93A2
:100CC0006F937F938F939F93AF93BF93EF93FF9314
:100CD00080913E0190913F01AC01092E000C660B02
:100CE000770B9A01112700274091840050918500CD
:100CF00060E070E0402B512B622B732B409340013E
:100D0000509341016093420170934301B09B1AC01C
:100D10000196092E000CAA0BBB0BBC0155274427DA
:100D20008091840090918500A0E0B0E0842B952B09
:100D3000A62BB72B8093400190934101A0934201D1
:100D4000B0934301E091E201F091E301309739F073
:100D500061E070E080914A0190914B0109950E94F9
:100D6000B205FF91EF91BF91AF919F918F917F91CC
:100D70006F915F914F913F912F911F910F910F9024
:100D80000FBE0F901F9018951F920F920FB60F92E3
:100D900011240F931F932F933F934F935F936F9360
:100DA0007F938F939F93AF93BF93EF93FF93809124
:100DB0003E0190913F01AC01092E000C660B770BB0
:100DC0009A0111270027409184005091850060E02E
:100DD00070E0402B512B622B732B409340015093BA
:100DE00041016093420170934301B09B1AC0019688
:100DF000092E000CAA0BBB0BBC0155274427809180
:100E0000840090918500A0E0B0E0842B952BA62B68
:100E1000B72B8093400190934101A0934201B0937E
:100E20004301E091E401F091E501309739F062E08F
:100E300070E080914C0190914D0109950E94B2059E
:100E4000FF91EF91BF91AF919F918F917F916F91A2
:100E50005F914F913F912F911F910F910F900FBE76
:100E60000F901F9018951F920F920FB60F9211249A
:100E70000F931F932F933F934F935F936F937F93A2
:100E80008F939F93AF93BF93EF93FF9380913E0116
:100E900090913F01AC01092E000C660B770B9A0173
:100EA00011270027409184005091850060E070E098
:100EB000402B512B622B732B4093400150934101E7
:100EC0006093420170934301B09B1AC00196092EB2
:100ED000000CAA0BBB0BBC01552744278091840052
:100EE00090918500A0E0B0E0842B952BA62BB72B2A
:100EF0008093400190934101A0934201B09343013C
:100F0000E091E601F091E701309739F063E070E09D
:100F100080914E0190914F0109950E94B205FF9179
:100F2000EF91BF91AF919F918F917F916F915F9161
:100F30004F913F912F911F910F910F900FBE0F90E6
:100F40001F9018951F920F920FB60F9211240F93B6
:100F50001F932F933F934F935F936F937F938F9341
:100F60009F93AF93BF93EF93FF9380913E01909136
:100F70003F01AC01092E000C660B770B9A0111277B
:100F80000027409184005091850060E070E0402B84
:100F9000512B622B732B409340015093410160937E
:100FA000420170934301B09B1AC00196092E000CB8
:100FB000AA0BBB0BBC01552744278091840090915C
:100FC0008500A0E0B0E0842B952BA62BB72B809357
:100FD000400190934101A0934201B0934301E091FD
:100FE000E801F091E901309739F064E070E0809118
:100FF00050019091510109950E94B205FF91EF9126
:10100000BF91AF919F918F917F916F915F914F9120
:101010003F912F911F910F910F900FBE0F901F9036
:1010200018951F920F920FB60F9211240F931F93D2
:101030002F933F934F935F936F937F938F939F93E0
:10104000AF93BF93EF93FF9380913E0190913F0147
:10105000AC01092E000C660B770B9A0111270027B3
:10106000409184005091850060E070E0402B512B4E
:10107000622B732B409340015093410160934201D6
:1010800070934301B09B1AC00196092E000CAA0B65
:10109000BB0BBC01552744278091840090918500AB
:1010A000A0E0B0E0842B952BA62BB72B80934001BA
:1010B00090934101A0934201B0934301E091EA0172
:1010C000F091EB01309739F065E070E080915201CA
:1010D0009091530109950E94B205FF91EF91BF9144
:1010E000AF919F918F917F916F915F914F913F91C0
:1010F0002F911F910F910F900FBE0F901F90189579
:101100001F920F920FB60F9211240F931F932F93DC
:101110003F934F935F936F937F938F939F93AF937F
:10112000BF93EF93FF9380913E0190913F01AC01FB
:10113000092E000C660B770B9A01112700274091AE
:1011400084005091850060E070E0402B512B622BB1
:10115000732B40934001509341016093420170937F
:101160004301B09B1AC00196092E000CAA0BBB0BC1
:10117000BC01552744278091840090918500A0E010
:10118000B0E0842B952BA62BB72B80934001909336
:101190004101A0934201B0934301E091EC01F09131
:1011A000ED01309739F066E070E080915401909144
:1011B000550109950E94B205FF91EF91BF91AF9142
:1011C0009F918F917F916F915F914F913F912F915F
:1011D0001F910F910F900FBE0F901F9018951F92A7
:1011E0000F920FB60F9211240F931F932F933F93DB
:1011F0004F935F936F937F938F939F93AF93BF931F
:10120000EF93FF9380913E0190913F01AC01092E35
:10121000000C660B770B9A01112700274091840080
:101220005091850060E070E0402B512B622B732BB6
:1012300040934001509341016093420170934301F8
:10124000B09B1AC00196092E000CAA0BBB0BBC0167
:10125000552744278091840090918500A0E0B0E05C
:10126000842B952BA62BB72B8093400190934101A3
:10127000A0934201B0934301E091EE01F091EF01A0
:10128000309739F067E070E08091560190915701F6
:1012900009950E94B205FF91EF91BF91AF919F9187
:1012A0008F917F916F915F914F913F912F911F91FE
:1012B0000F910F900FBE0F901F9018951F920F92D5
:1012C0000FB60F9211240F931F932F933F934F93B9
:1012D0005F936F937F938F939F93AF93BF93EF939E
:1012E000FF9380913E0190913F01AC01092E000CCB
:1012F000660B770B9A0111270027409184005091CB
:10130000850060E070E0402B512B622B732B4093E3
:101310004001509341016093420170934301B09B9F
:101320001AC00196092E000CAA0BBB0BBC01552755
:1013300044278091840090918500A0E0B0E0842B48
:10134000952BA62BB72B8093400190934101A0933E
:101350004201B0934301E091F001F091F101309727
:1013600039F068E070E08091580190915901099539
:101370000E94B205FF91EF91BF91AF919F918F9124
:101380007F916F915F914F913F912F911F910F919D
:101390000F900FBE0F901F9018951F920F920FB6CF
:1013A0000F9211240F931F932F933F934F935F93AB
:1013B0006F937F938F939F93AF93BF93EF93FF931D
:1013C00080913E0190913F01AC01092E000C660B0B
:1013D000770B9A01112700274091840050918500D6
:1013E00060E070E0402B512B622B732B4093400147
:1013F000509341016093420170934301B09B1AC026
:101400000196092E000CAA0BBB0BBC0155274427E3
:101410008091840090918500A0E0B0E0842B952B12
:10142000A62BB72B8093400190934101A0934201DA
:10143000B0934301E091F201F091F301309739F05C
:1014400069E070E080915A0190915B0109950E94DA
:10145000B205FF91EF91BF91AF919F918F917F91D5
:101460006F915F914F913F912F911F910F910F902D
:101470000FBE0F901F9018951F920F920FB60F92EC
:1014800011240F931F932F933F934F935F936F9369
:101490007F938F939F93AF93BF93EF93FF9380912D
:1014A0003E0190913F01AC01092E000C660B770BB9
:1014B0009A0111270027409184005091850060E037
:1014C00070E0402B512B622B732B409340015093C3
:1014D00041016093420170934301B09B1AC0019691
:1014E000092E000CAA0BBB0BBC0155274427809189
:1014F000840090918500A0E0B0E0842B952BA62B72
:10150000B72B8093400190934101A0934201B09387
:101510004301E091F401F091F501309739F06AE070
:1015200070E080915C0190915D0109950E94B20587
:10153000FF91EF91BF91AF919F918F917F916F91AB
:101540005F914F913F912F911F910F910F900FBE7F
:101550000F901F9018951F920F920FB60F921124A3
:101560000F931F932F933F934F935F936F937F93AB
:101570008F939F93AF93BF93EF93FF9380913E011F
:1015800090913F01AC01092E000C660B770B9A017C
:1015900011270027409184005091850060E070E0A1
:1015A000402B512B622B732B4093400150934101F0
:1015B0006093420170934301B09B1AC00196092EBB
:1015C000000CAA0BBB0BBC0155274427809184005B
:1015D00090918500A0E0B0E0842B952BA62BB72B33
:1015E0008093400190934101A0934201B093430145
:1015F000E091F601F091F701309739F06BE070E07F
:1016000080915E0190915F0109950E94B205FF9162
:10161000EF91BF91AF919F918F917F916F915F916A
:101620004F913F912F911F910F910F900FBE0F90EF
:101630001F9018951F920F920FB60F9211240F93BF
:101640001F932F933F934F935F936F937F938F934A
:101650009F93AF93BF93EF93FF9380913E0190913F
:101660003F01AC01092E000C660B770B9A01112784
:101670000027409184005091850060E070E0402B8D
:10168000512B622B732B4093400150934101609387
:10169000420170934301B09B1AC00196092E000CC1
:1016A000AA0BBB0BBC015527442780918400909165
:1016B0008500A0E0B0E0842B952BA62BB72B809360
:1016C000400190934101A0934201B0934301E09106
:1016D000F801F091F901309739F06CE070E08091F9
:1016E00060019091610109950E94B205FF91EF910F
:1016F000BF91AF919F918F917F916F915F914F912A
:101700003F912F911F910F910F900FBE0F901F903F
:1017100018951F920F920FB60F9211240F931F93DB
:101720002F933F934F935F936F937F938F939F93E9
:10173000AF93BF93EF93FF9380913E0190913F0150
:10174000AC01092E000C660B770B9A0111270027BC
:10175000409184005091850060E070E0402B512B57
:10176000622B732B409340015093410160934201DF
:1017700070934301B09B1AC00196092E000CAA0B6E
:10178000BB0BBC01552744278091840090918500B4
:10179000A0E0B0E0842B952BA62BB72B80934001C3
:1017A00090934101A0934201B0934301E091FA016B
:1017B000F091FB01309739F06DE070E080916201AB
:1017C0009091630109950E94B205FF91EF91BF913D
:1017D000AF919F918F917F916F915F914F913F91C9
:1017E0002F911F910F910F900FBE0F901F90189582
:1017F0001F920F920FB60F9211240F931F932F93E6
:101800003F934F935F936F937F938F939F93AF9388
:10181000BF93EF93FF9380913E0190913F01AC0104
:10182000092E000C660B770B9A01112700274091B7
:1018300084005091850060E070E0402B512B622BBA
:10184000732B409340015093410160934201709388
:101850004301B09B1AC00196092E000CAA0BBB0BCA
:10186000BC01552744278091840090918500A0E019
:10187000B0E0842B952BA62BB72B8093400190933F
:101880004101A0934201B0934301E091FC01F0912A
:10189000FD01309739F06EE070E080916401909125
:1018A000650109950E94B205FF91EF91BF91AF913B
:1018B0009F918F917F916F915F914F913F912F9168
:1018C0001F910F910F900FBE0F901F9018951F92B0
:1018D0000F920FB60F9211240F931F932F933F93E4
:1018E0004F935F936F937F938F939F93AF93BF9328
:1018F000EF93FF9380913E0190913F01AC01092E3F
:10190000000C660B770B9A01112700274091840089
:101910005091850060E070E0402B512B622B732BBF
:101920004093400150934101609342017093430101
:10193000B09B1AC00196092E000CAA0BBB0BBC0170
:10194000552744278091840090918500A0E0B0E065
:10195000842B952BA62BB72B8093400190934101AC
:10196000A0934201B0934301E091FE01F091FF0189
:10197000309739F06FE070E08091660190916701D7
:1019800009950E94B205FF91EF91BF91AF919F9190
:101990008F917F916F915F914F913F912F911F9107
:1019A0000F910F900FBE0F901F9018951F920F92DE
:1019B0000FB60F9211240F931F932F933F934F93C2
:1019C0005F936F937F938F939F93AF93BF93EF93A7
:1019D000FF9380913E0190913F01AC01092E000CD4
:1019E000660B770B9A0111270027409184005091D4
:1019F000850060E070E0402B512B622B732B4093ED
:101A00004001509341016093420170934301B09BA8
:101A10001AC00196092E000CAA0BBB0BBC0155275E
:101A200044278091840090918500A0E0B0E0842B51
:101A3000952BA62BB72B8093400190934101A09347
:101A40004201B0934301E0910002F091010230970E
:101A500039F060E170E08091680190916901099529
:101A60000E94B205FF91EF91BF91AF919F918F912D
:101A70007F916F915F914F913F912F911F910F91A6
:101A80000F900FBE0F901F9018951F920F920FB6D8
:101A90000F9211240F931F932F933F934F935F93B4
:101AA0006F937F938F939F93AF93BF93EF93FF9326
:101AB00080913E0190913F01AC01092E000C660B14
:101AC000770B9A01112700274091840050918500DF
:101AD00060E070E0402B512B622B732B4093400150
:101AE000509341016093420170934301B09B1AC02F
:101AF0000196092E000CAA0BBB0BBC0155274427ED
:101B00008091840090918500A0E0B0E0842B952B1B
:101B1000A62BB72B8093400190934101A0934201E3
:101B2000B0934301E0910202F0910302309739F043
:101B300061E170E080916A0190916B0109950E94CA
:101B4000B205FF91EF91BF91AF919F918F917F91DE
:101B50006F915F914F913F912F911F910F910F9036
:101B60000FBE0F901F9018950E94B205789481E0E7
:101B700083BF8895FCCF1F920F920FB60F9211244E
:101B80002F933F934F935F936F937F938F939F9385
:101B9000EF93FF9380913E0190913F0101969093C6
:101BA0003F0180933E01E0914401F091450130975F
:101BB00001F1428153816481758186179707C9F4C9
:101BC000CA012091840030918500421B530B4130A3
:101BD000510529F48091840090918500019690939D
:101BE000890080938800EFE6F0E080818260808346
:101BF00005C0EFE6F0E080818D7F8083FF91EF915B
:101C00009F918F917F916F915F914F913F912F9114
:101C10000F900FBE0F901F9018951F920F920FB646
:101C20000F921124CF92DF92EF92FF922F933F9366
:101C30004F935F936F937F938F939F93AF93BF93D4
:101C4000EF93FF9380913E0190913F016C01092E2B
:101C5000000CEE08FF087601DD24CC2440918400BE
:101C60005091850060E070E0C42AD52AE62AF72A60
:101C7000B09B1EC06C012FEFC21AD20A0D2C000CB3
:101C8000EE08FF08D60199278827C0908400D090DD
:101C90008500E12CF12CC82AD92AEA2AFB2A08C09F
:101CA00084E491E00E947D0566E471E00E941B05DA
:101CB000E0914401F0914501309769F08281938170
:101CC000A481B5818C199D09AE09BF0918161906A2
:101CD0001A061B062CF7309721F182819381A4818B
:101CE000B58120913E0130913F012A173B07C9F48D
:101CF0009C014091840050918500841B950B0197B5
:101D000031F420918400309185002F5F3F4F309354
:101D1000890020938800EFE6F0E080818260808374
:101D200005C0EFE6F0E080818D7F80830E94B205E0
:101D3000FF91EF91BF91AF919F918F917F916F91A3
:101D40005F914F913F912F91FF90EF90DF90CF9057
:101D50000F900FBE0F901F9018953F924F925F9279
:101D60006F927F928F929F92AF92BF92CF92DF92AB
:101D7000EF92FF920F931F93CF93DF932B013C01C0
:101D800049015A018FB78078382EF89483E291E0A8
:101D90000E947D05EC011B870A87FD86EC86DF86A5
:101DA000CE86332061F0E0911D01F0911E0102808A
:101DB000F381E02D82819381A481B58108C0809157
:101DC000400190914101A0914201B0914301480E20
:101DD000591E6A1E7B1E4A825B826C827D821814A9
:101DE00019041A041B0444F00F2E88248A94982C9A
:101DF000A82CFFE7BF2EF02D840C951CA61CB71C49
:101E00008E829F82A886B98620913E0130913F0143
:101E1000C901032E000CAA0BBB0BDC0199278827F4
:101E2000409184005091850060E070E0842B952BF8
:101E3000A62BB72BB09B13C0C9010196092E000C2D
:101E4000AA0BBB0BDC019927882740918400509195
:101E5000850060E070E0842B952BA62BB72B481AE9
:101E6000590A6A0A7B0A1414150416041704ACF5FF
:101E700064E471E0CE010E944C05E0914401F091D0
:101E80004501309721F182819381A481B581209110
:101E90003E0130913F012A173B07C9F49C01409154
:101EA000840050918500841B950B019731F420919B
:101EB0008400309185002F5F3F4F3093890020933D
:101EC0008800EFE6F0E080818260808339C0EFE631
:101ED000F0E080818D7F808333C066E471E0CE01C5
:101EE0000E941B05332061F1809121019091220114
:101EF000892B31F1E0914601F0914701868197816C
:101F0000A085B185E0911F01F09120010280F3814D
:101F1000E02D4681578160857185841B950BA60B4A
:101F2000B70B72F481E291E00E94A8056FE171E0C5
:101F30000E949E0580911F01909120010E94FB0448
:101F4000332009F07894CE01DF91CF911F910F914A
:101F5000FF90EF90DF90CF90BF90AF909F908F90C9
:101F60007F906F905F904F903F900895CF92DF9257
:101F7000EF92FF920F931F93CF93DF93EC017B01BE
:101F80006A011FB71078F894A881B981109719F4E5
:101F900035C0A081B1811496ED91FC9115973097D1
:101FA000C1F720911D0130911E01A217B30711F056
:101FB000111107C0112309F44AC078948FEF9FEFE5
:101FC0004EC08A819B81009719F0FC011582148212
:101FD0003B832A83F901D583C483CD010E94FB048E
:101FE000E0911D01F0911E0182819381892B31F4D2
:101FF000112381F1789480E090E031C080911D013F
:1020000090911E0199838883112329F08A819B81F5
:10201000019709F07894B601CE01F7010995F82EE1
:10202000092F8FB7F894198218828A819B81823098
:10203000910538F01B821A82FC01158214820E94DD
:10204000FB04112351F078948F2D902F08C08FEF4F
:102050009FEF05C080E090E002C08F2D902FDF91B0
:10206000CF911F910F91FF90EF90DF90CF90089547
:1020700000911D0110911E0186E491E00E947D05F2
:10208000EC01F8019383828378946C857D854E857D
:102090005F858A859B850E94B60F8FB7F89463E2AF
:1020A00071E0CE010E949405E0911F01F0912001A2
:1020B0000190F081E02DC281D381E0914601F09141
:1020C00047013097A1F0209799F286819781A085EA
:1020D000B1854E815F8168857985841B950BA60B40
:1020E000B70B181619061A061B060CF0C1CF8FE1A4
:1020F00091E00E94A80561E271E00E949E05A09116
:102100001F01B091200102C0A081B1811496ED9110
:10211000FC9115973097C1F7CD010E94FB04A8CF21
:10212000CF92DF92EF92FF922FB72078F8944091F0
:102130003E0150913F01CA01052E000CAA0BBB0BBA
:102140007C01DD24CC248091840090918500A0E066
:10215000B0E08C299D29AE29BF29B09B14C0BA01DB
:102160006F5F7F4FCB01770FAA0BBB0BBC015527CD
:1021700044278091840090918500A0E0B0E0842BFA
:10218000952BA62BB72B222309F07894222361F0FC
:10219000E0911D01F0911E010280F381E02DC280CB
:1021A000D380E480F58008C0C0904001D090410108
:1021B000E0904201F0904301BC01CD016C197D0912
:1021C0008E099F09FF90EF90DF90CF900895FC015A
:1021D0004231B8F49FB79078F89450E0440F551FFF
:1021E000DA01A85BBE4FED93FC93DA01A052BE4F1B
:1021F0006D937C9321E030E033832283992309F0AF
:10220000789408958C017B016A018FB7F8940E943D
:102210005C047894E114F10441F020E030E0A9017D
:1022200060E070E0CB010E94AD0E8FB7F8940E9481
:10223000B40D052E97FB1EF400940E94301157FD3B
:1022400007D00E94381107FC03D04EF40C943011D3
:1022500050954095309521953F4F4F4F5F4F0895D2
:1022600090958095709561957F4F8F4F9F4F089502
:10227000A1E21A2EAA1BBB1BFD010DC0AA1FBB1F8A
:10228000EE1FFF1FA217B307E407F50720F0A21BFC
:10229000B30BE40BF50B661F771F881F991F1A9469
:1022A00069F760957095809590959B01AC01BD0193
:1022B000CF010895DC012D923D924D925D926D9279
:1022C0007D928D929D92AD92BD92CD92DD92ED92D6
:1022D000FD920D931D93CD93DD93FF91EF918DB7FB
:1022E0008D938EB78D938FB78D93ED93FD93882744
:1022F00099270994DC01CB0181309105811D2D9036
:102300003D904D905D906D907D908D909D90AD90A5
:10231000BD90CD90DD90ED90FD900D911D91CD91F2
:10232000DD91ED91FD910D90F894FEBF0FBEEDBFD4
:0A233000ED91FD910994F894FFCFA0
:10233A00000000000601000000003A010000000051
:10234A000000000000000000000000000004020479
:10235A00026C01210251151001111E111B500B4173
:0A236A001B411F1101511F511B0000
:00000001FF
