:100000000C942E000C94AE050C941D060C948C06DA
:100010000C94FB060C946A070C944B000C94D50DC1
:100020000C944B000C94830D0C94D9070C94480845
:100030000C94B7080C9426090C9495090C94040AA6
:100040000C94730A0C94E20A0C94510B0C94C00BA0
:100050000C942F0C0C949E0C0C940D0D11241FBEAF
:10006000CFEFD4E0DEBFCDBF11E0A0E0B1E0ECE126
:10007000F2E202C005900D92A234B107D9F724E054
:10008000A2E4B1E001C01D92A939B207E1F70E94D4
:1000900007040C940C110C940000E1E6F0E080E8F9
:1000A000808310821092C5008FEF8093C40088E98E
:1000B0008093C10086E08093C2000895CF92DF92C2
:1000C000EF92FF920F931F93FC014685578560893D
:1000D0007189452B462B472B09F0ECC0868197810F
:1000E000A085B18542855385648575850097A105F6
:1000F000B10529F5411551056105710501F5138A11
:10010000148A158A168A82898A3009F4D3C08AE053
:10011000828B048115810F2EFAE0CF2ED12CF02D89
:100120000F2EFBE1EF2EF4E0FF2EF02D20E030E06B
:10013000A90160E070E0CB010E94750EBBC0009782
:10014000A105B10509F14115510561057105E1F4FC
:100150008289893009F4AEC089E0828B04811581DF
:100160000F2EF9E0CF2ED12CF02D0F2EFBE1EF2E2C
:10017000F4E0FF2EF02D20E030E0A90160E070E017
:10018000CB010E94750E96C04115510561057105A0
:1001900001F10097A105B105E1F48289863009F4E7
:1001A00089C086E0828B048115810F2EF6E0CF2E68
:1001B000D12CF02D0F2EFBE1EF2EF4E0FF2EF02DD1
:1001C00020E030E0A90160E070E0CB010E94750EF4
:1001D00071C00389148925893689043011052105E8
:1001E000310580F1138A148A158A168A27892223F9
:1001F00039F0452B462B472B19F086E0828B0FC038
:10020000211107C0892B8A2B8B2B19F089E0828B57
:1002100006C0222311F089E001C086E0828BC288EB
:1002200004811581D12C0F2EFBE1EF2EF4E0FF2E7F
:10023000F02D20E030E0A90160E070E0CB010E94E9
:10024000750E38C0808D8823D9F08289893091F16C
:1002500089E0828B048115810F2EF9E0CF2ED12CFD
:10026000F02D0F2EFBE1EF2EF4E0FF2EF02D20E01D
:1002700030E0A90160E070E0CB010E94750E1AC069
:1002800082898630B9F086E0828B048115810F2E39
:10029000F6E0CF2ED12CF02D0F2EFBE1EF2EF4E067
:1002A000FF2EF02D20E030E0A90160E070E0CB01EE
:1002B0000E94750E80E090E01F910F91FF90EF90EB
:1002C000DF90CF900895BF92CF92DF92EF92FF928E
:1002D0000F931F93CF93DF93EC01B62E60FF0DC0F9
:1002E0008E819F81A885B9850196A11DB11D8E8340
:1002F0009F83A887B98781E0888FB2FE0CC08A856A
:100300009B85AC85BD850196A11DB11D8A879B8704
:10031000AC87BD87188EB1FE66C08A8980FF63C036
:100320008E819F81A885B9850097A105B10539F017
:100330000197A109B1098E839F83A887B9878E850C
:100340009F85A889B9890196A11DB11D8E879F87B8
:10035000A88BB98B8B899C89AD89BE890196A11D1B
:10036000B11D8B8B9C8BAD8BBE8B81E08F8BCC2496
:10037000C394D12C0F2EFFE6EF2EF2E0FF2EF02DCE
:100380008E0120E030E0A9016AE572E682E090E0AB
:100390000E94750E8AE08A8B0C811D810F2EFAE077
:1003A000CF2ED12CF02D0F2EFBE1EF2EF4E0FF2EFF
:1003B000F02D20E030E0A90160E070E0CB010E9468
:1003C000750EC12CD12C0F2EFAE6EF2EF2E0FF2E87
:1003D000F02D8E0120E030E0A90162E17AE780E0B3
:1003E00090E00E94750EB3FE64C08A8982FF61C0EE
:1003F0008A859B85AC85BD850097A105B10539F03F
:100400000197A109B1098A879B87AC87BD878E8533
:100410009F85A889B9890196A11DB11D8E879F87E7
:10042000A88BB98B8B899C89AD89BE890196A11D4A
:10043000B11D8B8B9C8BAD8BBE8B1F8AC12CD12C9D
:100440000F2EFFE6EF2EF2E0FF2EF02D8E0120E0C2
:1004500030E0A9016AE572E682E090E00E94750E44
:100460008AE08A8B0C811D810F2EFAE0CF2ED12CD1
:10047000F02D0F2EFBE1EF2EF4E0FF2EF02D20E00B
:1004800030E0A90160E070E0CB010E94750EC12C44
:10049000D12C0F2EFAE6EF2EF2E0FF2EF02D8E017A
:1004A00020E030E0A90162E17AE780E090E00E947C
:1004B000750E60E070E0CE010E945E0080E090E08A
:1004C000DF91CF911F910F91FF90EF90DF90CF9030
:1004D000BF90089560E070E00E945E000895FC0106
:1004E00046855785608971894115510561057105FA
:1004F00041F0415051096109710946875787608B66
:10050000718B60E070E00E945E0080E090E00895F2
:10051000FC01868197810895FC0182859385089569
:10052000FC01868597850895CF92DF92EF92FF9226
:100530000F931F93CF93DF93C12CD12C0F2EFFE687
:10054000EF2EF3E0FF2EF02D8C0120E030E0A9012A
:1005500060E070E0CB010E94750E0F2EF4E9EF2EE3
:10056000F2E0FF2EF02D20E030E0A90169E07DE30C
:1005700080E090E00E94750E80E090E0DF91CF91E6
:100580001F910F91FF90EF90DF90CF90089580EC36
:100590008093E40087EB8093E5008FE08093E70091
:1005A00008956630710508F06BC090ED980F9A3091
:1005B00050F4E82FF0E0F097EE0FFF1FE35DFE4FE1
:1005C0008081918102C080E090E0FB0177230CF4F0
:1005D0003196F595E795E451FF4F61707078772378
:1005E00034F4615071096E6F7F6F6F5F7F4F660FDC
:1005F000771F660F771F30814FE050E0062E02C054
:10060000440F551F0A94E2F7242F2095AC014F7038
:100610005527062E02C0440F551F0A94E2F73223D5
:10062000432B40833581AC01529542954F7045274D
:100630005F7045274F705527062E02C0440F551F87
:100640000A94E2F73223432B45833285492F5527FD
:100650004F705527062E02C0440F551F0A94E2F72B
:100660003223432B42873785892F992782958F70B4
:1006700002C0880F991F6A95E2F72323822B878790
:100680000895CF92DF92EF92FF921F93CF93DF9363
:10069000EA010F2EFAE0CF2ED12CE12CF12CF02D17
:1006A000A70196010E948A10162FCA01B901A7015D
:1006B00096010E948A10862FBE01805D0E94D102A1
:1006C000BE016F5F7F4F80E3810F0E94D102DF91F7
:1006D000CF911F91FF90EF90DF90CF900895EF9210
:1006E000FF920F931F93CF93DF93EC0140E050E014
:1006F00068E872E08C819D810E947E0F7C0140E061
:1007000050E060E972E08C819D810E947E0F8C0137
:1007100040E050E06CE872E08C819D810E947E0F89
:10072000EC01B701FF0C880B990B40E050E00E94F0
:100730004103B801110F880B990B42E050E00E9471
:100740004103BE01DD0F880B990B44E050E00E948D
:10075000410380E090E0DF91CF911F910F91FF90D6
:10076000EF900895CF92DF92EF92FF920F931F9335
:10077000C090C600FC0104811581D12C0F2EF3E638
:10078000EF2EF1E0FF2EF02D20E030E0A90160E037
:1007900070E0CB010E94750E80E090E01F910F91F8
:1007A000FF90EF90DF90CF900895CF92DF92EF927D
:1007B000FF920F931F93CF93DF93C12CD12C0F2E59
:1007C000FFE6EF2EF3E0FF2EF02D8C0120E030E06D
:1007D000A90160E070E0CB010E94750E0F2EF4E9D4
:1007E000EF2EF2E0FF2EF02D20E030E0A90160E0D6
:1007F00070E0CB010E94750E80E090E0DF91CF9118
:100800001F910F91FF90EF90DF90CF9008950E947D
:100810004D000E94C70248E062EB73E080E091E087
:100820000E94581040E050E065ED73E086E091E0F2
:100830000E94731008958091C00085FFFCCF6093E3
:10084000C60080E090E00895CF93DF9300D000D001
:10085000CDB7DEB780E090E018C0AC014F5F5F4FCE
:100860009A0122953295307F3227207F3227275DEB
:100870003D4F82959295907F9827807F9827FC0125
:10088000E75DFD4F31832083CA018E3091052CF343
:1008900010920A031092090380E090E015C0AC01A9
:1008A0004F5F5F4F6DE1649F9001659F300D112494
:1008B0002C583E4F689FF001699FF00D1124EC58B1
:1008C000FE4F31832083CA018330910544F3109297
:1008D000CC011092CB011A82198232C02DE14981DC
:1008E0005A81249FC001259F900D1124FC01E658D8
:1008F000FE4FFC83EB83CF010E94CB1020E64981A1
:100900005A81249FC001259F900D11248B589C4F24
:10091000EB81FC81918B808B938B828B80E090E1CB
:10092000968B858B8DE1849FF001859FF00D1124BE
:10093000EC58FE4F158214824F5F5F4F5A834983F4
:1009400029813A81243031054CF2ECE0F2E0118249
:1009500010821582148213821282E1E6F0E080E8B0
:1009600080831082109285001092840084E080932E
:10097000810081E080936F000F900F900F900F9097
:10098000DF91CF910895CF93DF9300D0CDB7DEB73D
:100990009A838983809125019091260106960E9471
:1009A000CB10892B59F489819A81909326018093E9
:1009B000250161E070E006960E94EB100F900F9009
:1009C000DF91CF9108950F931F93CF93DF93DC01B5
:1009D000CB01EB01E881F981C0E0D0E004C0EF0178
:1009E0000190F081E02D309779F006811781208504
:1009F000318516964D915D916D917C9119974017B7
:100A00005107620773075CF71196FC93EE932097EA
:100A100021F4FC01B183A08302C0B983A883DF91D4
:100A2000CF911F910F9108950F931F93CF93DF9351
:100A3000DC01CB01EB01E881F981C0E0D0E004C02A
:100A4000EF010190F081E02D309779F00281138160
:100A50002481358112964D915D916D917C91159710
:100A600040175107620773075CF71196FC93EE93EA
:100A7000209721F4FC01B183A08302C0B983A8832D
:100A8000DF91CF911F910F910895DC01ED91FC91C1
:100A90001197309759F48FEF8093EC008093ED001D
:100AA0008093EE0081E083BF8895FCCF2081318167
:100AB0002D933C93CF010895FB0120813181FC01EE
:100AC00031832083FB01918380830895FB01208182
:100AD0003181FC0131832083FB0191838083089560
:100AE000DC01ED91FC911197208131812D933C9394
:100AF000CF010895CF93DF93E0912701F091280172
:100B0000C281D381E0914E01F0914F01309719F1EC
:100B10008091290190912A01892BE9F0209769F0B1
:100B200086819781A085B1854E815F8168857985B1
:100B3000841B950BA60BB70B72F489E291E00E941F
:100B4000700567E271E00E9466058091270190912F
:100B500028010E94C304DF91CF9108951F920F9244
:100B60000FB60F9211240F931F932F933F934F9320
:100B70005F936F937F938F939F93AF93BF93EF9305
:100B8000FF938091460190914701AC01092E000C22
:100B9000660B770B9A011127002740918400509132
:100BA000850060E070E0402B512B622B732B40934B
:100BB00048015093490160934A0170934B01B09BE7
:100BC0001AC00196092E000CAA0BBB0BBC015527BD
:100BD00044278091840090918500A0E0B0E0842BB0
:100BE000952BA62BB72B8093480190934901A09396
:100BF0004A01B0934B01E091E801F091E90130978F
:100C000039F060E070E080915001909151010995B8
:100C10000E947A05FF91EF91BF91AF919F918F91C3
:100C20007F916F915F914F913F912F911F910F9104
:100C30000F900FBE0F901F9018951F920F920FB636
:100C40000F9211240F931F932F933F934F935F9312
:100C50006F937F938F939F93AF93BF93EF93FF9384
:100C60008091460190914701AC01092E000C660B62
:100C7000770B9A011127002740918400509185003D
:100C800060E070E0402B512B622B732B40934801A6
:100C90005093490160934A0170934B01B09B1AC075
:100CA0000196092E000CAA0BBB0BBC01552744274B
:100CB0008091840090918500A0E0B0E0842B952B7A
:100CC000A62BB72B8093480190934901A0934A012A
:100CD000B0934B01E091EA01F091EB01309739F0CC
:100CE00061E070E0809152019091530109950E945A
:100CF0007A05FF91EF91BF91AF919F918F917F9175
:100D00006F915F914F913F912F911F910F910F9094
:100D10000FBE0F901F9018951F920F920FB60F9253
:100D200011240F931F932F933F934F935F936F93D0
:100D30007F938F939F93AF93BF93EF93FF93809194
:100D4000460190914701AC01092E000C660B770B10
:100D50009A0111270027409184005091850060E09E
:100D600070E0402B512B622B732B40934801509322
:100D7000490160934A0170934B01B09B1AC00196E0
:100D8000092E000CAA0BBB0BBC01552744278091F0
:100D9000840090918500A0E0B0E0842B952BA62BD9
:100DA000B72B8093480190934901A0934A01B093D7
:100DB0004B01E091EC01F091ED01309739F062E0E8
:100DC00070E0809154019091550109950E947A0537
:100DD000FF91EF91BF91AF919F918F917F916F9113
:100DE0005F914F913F912F911F910F910F900FBEE7
:100DF0000F901F9018951F920F920FB60F9211240B
:100E00000F931F932F933F934F935F936F937F9312
:100E10008F939F93AF93BF93EF93FF93809146017E
:100E200090914701AC01092E000C660B770B9A01DB
:100E300011270027409184005091850060E070E008
:100E4000402B512B622B732B409348015093490147
:100E500060934A0170934B01B09B1AC00196092E12
:100E6000000CAA0BBB0BBC015527442780918400C2
:100E700090918500A0E0B0E0842B952BA62BB72B9A
:100E80008093480190934901A0934A01B0934B018C
:100E9000E091EE01F091EF01309739F063E070E0FE
:100EA000809156019091570109950E947A05FF9112
:100EB000EF91BF91AF919F918F917F916F915F91D2
:100EC0004F913F912F911F910F910F900FBE0F9057
:100ED0001F9018951F920F920FB60F9211240F9327
:100EE0001F932F933F934F935F936F937F938F93B2
:100EF0009F93AF93BF93EF93FF938091460190919F
:100F00004701AC01092E000C660B770B9A011127E3
:100F10000027409184005091850060E070E0402BF4
:100F2000512B622B732B40934801509349016093DE
:100F30004A0170934B01B09B1AC00196092E000C18
:100F4000AA0BBB0BBC0155274427809184009091CC
:100F50008500A0E0B0E0842B952BA62BB72B8093C7
:100F6000480190934901A0934A01B0934B01E0914D
:100F7000F001F091F101309739F064E070E0809178
:100F800058019091590109950E947A05FF91EF91BE
:100F9000BF91AF919F918F917F916F915F914F9191
:100FA0003F912F911F910F910F900FBE0F901F90A7
:100FB00018951F920F920FB60F9211240F931F9343
:100FC0002F933F934F935F936F937F938F939F9351
:100FD000AF93BF93EF93FF938091460190914701A8
:100FE000AC01092E000C660B770B9A011127002724
:100FF000409184005091850060E070E0402B512BBF
:10100000622B732B409348015093490160934A012E
:1010100070934B01B09B1AC00196092E000CAA0BCD
:10102000BB0BBC015527442780918400909185001B
:10103000A0E0B0E0842B952BA62BB72B8093480122
:1010400090934901A0934A01B0934B01E091F201C2
:10105000F091F301309739F065E070E080915A012A
:1010600090915B0109950E947A05FF91EF91BF91E4
:10107000AF919F918F917F916F915F914F913F9130
:101080002F911F910F910F900FBE0F901F901895E9
:101090001F920F920FB60F9211240F931F932F934D
:1010A0003F934F935F936F937F938F939F93AF93F0
:1010B000BF93EF93FF938091460190914701AC015C
:1010C000092E000C660B770B9A011127002740911F
:1010D00084005091850060E070E0402B512B622B22
:1010E000732B409348015093490160934A017093D8
:1010F0004B01B09B1AC00196092E000CAA0BBB0B2A
:10110000BC01552744278091840090918500A0E080
:10111000B0E0842B952BA62BB72B8093480190939E
:101120004901A0934A01B0934B01E091F401F09181
:10113000F501309739F066E070E080915C019091A4
:101140005D0109950E947A05FF91EF91BF91AF91E2
:101150009F918F917F916F915F914F913F912F91CF
:101160001F910F910F900FBE0F901F9018951F9217
:101170000F920FB60F9211240F931F932F933F934B
:101180004F935F936F937F938F939F93AF93BF938F
:10119000EF93FF938091460190914701AC01092E96
:1011A000000C660B770B9A011127002740918400F1
:1011B0005091850060E070E0402B512B622B732B27
:1011C000409348015093490160934A0170934B0149
:1011D000B09B1AC00196092E000CAA0BBB0BBC01D8
:1011E000552744278091840090918500A0E0B0E0CD
:1011F000842B952BA62BB72B809348019093490104
:10120000A0934A01B0934B01E091F601F091F701F0
:10121000309739F067E070E080915E0190915F0156
:1012200009950E947A05FF91EF91BF91AF919F912F
:101230008F917F916F915F914F913F912F911F916E
:101240000F910F900FBE0F901F9018951F920F9245
:101250000FB60F9211240F931F932F933F934F9329
:101260005F936F937F938F939F93AF93BF93EF930E
:10127000FF938091460190914701AC01092E000C2B
:10128000660B770B9A01112700274091840050913B
:10129000850060E070E0402B512B622B732B409354
:1012A00048015093490160934A0170934B01B09BF0
:1012B0001AC00196092E000CAA0BBB0BBC015527C6
:1012C00044278091840090918500A0E0B0E0842BB9
:1012D000952BA62BB72B8093480190934901A0939F
:1012E0004A01B0934B01E091F801F091F901309778
:1012F00039F068E070E0809160019091610109959A
:101300000E947A05FF91EF91BF91AF919F918F91CC
:101310007F916F915F914F913F912F911F910F910D
:101320000F900FBE0F901F9018951F920F920FB63F
:101330000F9211240F931F932F933F934F935F931B
:101340006F937F938F939F93AF93BF93EF93FF938D
:101350008091460190914701AC01092E000C660B6B
:10136000770B9A0111270027409184005091850046
:1013700060E070E0402B512B622B732B40934801AF
:101380005093490160934A0170934B01B09B1AC07E
:101390000196092E000CAA0BBB0BBC015527442754
:1013A0008091840090918500A0E0B0E0842B952B83
:1013B000A62BB72B8093480190934901A0934A0133
:1013C000B0934B01E091FA01F091FB01309739F0B5
:1013D00069E070E0809162019091630109950E943B
:1013E0007A05FF91EF91BF91AF919F918F917F917E
:1013F0006F915F914F913F912F911F910F910F909E
:101400000FBE0F901F9018951F920F920FB60F925C
:1014100011240F931F932F933F934F935F936F93D9
:101420007F938F939F93AF93BF93EF93FF9380919D
:10143000460190914701AC01092E000C660B770B19
:101440009A0111270027409184005091850060E0A7
:1014500070E0402B512B622B732B4093480150932B
:10146000490160934A0170934B01B09B1AC00196E9
:10147000092E000CAA0BBB0BBC01552744278091F9
:10148000840090918500A0E0B0E0842B952BA62BE2
:10149000B72B8093480190934901A0934A01B093E0
:1014A0004B01E091FC01F091FD01309739F06AE0C9
:1014B00070E0809164019091650109950E947A0520
:1014C000FF91EF91BF91AF919F918F917F916F911C
:1014D0005F914F913F912F911F910F910F900FBEF0
:1014E0000F901F9018951F920F920FB60F92112414
:1014F0000F931F932F933F934F935F936F937F931C
:101500008F939F93AF93BF93EF93FF938091460187
:1015100090914701AC01092E000C660B770B9A01E4
:1015200011270027409184005091850060E070E011
:10153000402B512B622B732B409348015093490150
:1015400060934A0170934B01B09B1AC00196092E1B
:10155000000CAA0BBB0BBC015527442780918400CB
:1015600090918500A0E0B0E0842B952BA62BB72BA3
:101570008093480190934901A0934A01B0934B0195
:10158000E091FE01F091FF01309739F06BE070E0DF
:10159000809166019091670109950E947A05FF91FB
:1015A000EF91BF91AF919F918F917F916F915F91DB
:1015B0004F913F912F911F910F910F900FBE0F9060
:1015C0001F9018951F920F920FB60F9211240F9330
:1015D0001F932F933F934F935F936F937F938F93BB
:1015E0009F93AF93BF93EF93FF93809146019091A8
:1015F0004701AC01092E000C660B770B9A011127ED
:101600000027409184005091850060E070E0402BFD
:10161000512B622B732B40934801509349016093E7
:101620004A0170934B01B09B1AC00196092E000C21
:10163000AA0BBB0BBC0155274427809184009091D5
:101640008500A0E0B0E0842B952BA62BB72B8093D0
:10165000480190934901A0934A01B0934B01E09156
:101660000002F0910102309739F06CE070E0809157
:1016700068019091690109950E947A05FF91EF91A7
:10168000BF91AF919F918F917F916F915F914F919A
:101690003F912F911F910F910F900FBE0F901F90B0
:1016A00018951F920F920FB60F9211240F931F934C
:1016B0002F933F934F935F936F937F938F939F935A
:1016C000AF93BF93EF93FF938091460190914701B1
:1016D000AC01092E000C660B770B9A01112700272D
:1016E000409184005091850060E070E0402B512BC8
:1016F000622B732B409348015093490160934A0138
:1017000070934B01B09B1AC00196092E000CAA0BD6
:10171000BB0BBC0155274427809184009091850024
:10172000A0E0B0E0842B952BA62BB72B809348012B
:1017300090934901A0934A01B0934B01E0910202BA
:10174000F0910302309739F06DE070E080916A010A
:1017500090916B0109950E947A05FF91EF91BF91DD
:10176000AF919F918F917F916F915F914F913F9139
:101770002F911F910F910F900FBE0F901F901895F2
:101780001F920F920FB60F9211240F931F932F9356
:101790003F934F935F936F937F938F939F93AF93F9
:1017A000BF93EF93FF938091460190914701AC0165
:1017B000092E000C660B770B9A0111270027409128
:1017C00084005091850060E070E0402B512B622B2B
:1017D000732B409348015093490160934A017093E1
:1017E0004B01B09B1AC00196092E000CAA0BBB0B33
:1017F000BC01552744278091840090918500A0E08A
:10180000B0E0842B952BA62BB72B809348019093A7
:101810004901A0934A01B0934B01E0910402F09179
:101820000502309739F06EE070E080916C01909184
:101830006D0109950E947A05FF91EF91BF91AF91DB
:101840009F918F917F916F915F914F913F912F91D8
:101850001F910F910F900FBE0F901F9018951F9220
:101860000F920FB60F9211240F931F932F933F9354
:101870004F935F936F937F938F939F93AF93BF9398
:10188000EF93FF938091460190914701AC01092E9F
:10189000000C660B770B9A011127002740918400FA
:1018A0005091850060E070E0402B512B622B732B30
:1018B000409348015093490160934A0170934B0152
:1018C000B09B1AC00196092E000CAA0BBB0BBC01E1
:1018D000552744278091840090918500A0E0B0E0D6
:1018E000842B952BA62BB72B80934801909349010D
:1018F000A0934A01B0934B01E0910602F0910702D8
:10190000309739F06FE070E080916E0190916F0137
:1019100009950E947A05FF91EF91BF91AF919F9138
:101920008F917F916F915F914F913F912F911F9177
:101930000F910F900FBE0F901F9018951F920F924E
:101940000FB60F9211240F931F932F933F934F9332
:101950005F936F937F938F939F93AF93BF93EF9317
:10196000FF938091460190914701AC01092E000C34
:10197000660B770B9A011127002740918400509144
:10198000850060E070E0402B512B622B732B40935D
:1019900048015093490160934A0170934B01B09BF9
:1019A0001AC00196092E000CAA0BBB0BBC015527CF
:1019B00044278091840090918500A0E0B0E0842BC2
:1019C000952BA62BB72B8093480190934901A093A8
:1019D0004A01B0934B01E0910802F091090230975F
:1019E00039F060E170E0809170019091710109958A
:1019F0000E947A05FF91EF91BF91AF919F918F91D6
:101A00007F916F915F914F913F912F911F910F9116
:101A10000F900FBE0F901F9018951F920F920FB648
:101A20000F9211240F931F932F933F934F935F9324
:101A30006F937F938F939F93AF93BF93EF93FF9396
:101A40008091460190914701AC01092E000C660B74
:101A5000770B9A011127002740918400509185004F
:101A600060E070E0402B512B622B732B40934801B8
:101A70005093490160934A0170934B01B09B1AC087
:101A80000196092E000CAA0BBB0BBC01552744275D
:101A90008091840090918500A0E0B0E0842B952B8C
:101AA000A62BB72B8093480190934901A0934A013C
:101AB000B0934B01E0910A02F0910B02309739F09C
:101AC00061E170E0809172019091730109950E942B
:101AD0007A05FF91EF91BF91AF919F918F917F9187
:101AE0006F915F914F913F912F911F910F910F90A7
:101AF0000FBE0F901F9018950E947A05789481E090
:101B000083BF8895FCCF1F920F920FB60F921124BE
:101B10002F933F934F935F936F937F938F939F93F5
:101B2000EF93FF9380914601909147010196909326
:101B3000470180934601E0914C01F0914D013097AF
:101B400001F1428153816481758186179707C9F439
:101B5000CA012091840030918500421B530B413013
:101B6000510529F48091840090918500019690930D
:101B7000890080938800EFE6F0E0808182608083B6
:101B800005C0EFE6F0E080818D7F8083FF91EF91CB
:101B90009F918F917F916F915F914F913F912F9185
:101BA0000F900FBE0F901F9018951F920F920FB6B7
:101BB0000F921124CF92DF92EF92FF922F933F93D7
:101BC0004F935F936F937F938F939F93AF93BF9345
:101BD000EF93FF9380914601909147016C01092E8C
:101BE000000CEE08FF087601DD24CC24409184002F
:101BF0005091850060E070E0C42AD52AE62AF72AD1
:101C0000B09B1EC06C012FEFC21AD20A0D2C000C23
:101C1000EE08FF08D60199278827C0908400D0904D
:101C20008500E12CF12CC82AD92AEA2AFB2A08C00F
:101C30008CE491E00E9445056EE471E00E94E304AB
:101C4000E0914C01F0914D01309769F082819381D0
:101C5000A481B5818C199D09AE09BF091816190612
:101C60001A061B062CF7309721F182819381A481FB
:101C7000B58120914601309147012A173B07C9F4ED
:101C80009C014091840050918500841B950B019725
:101C900031F420918400309185002F5F3F4F3093C5
:101CA000890020938800EFE6F0E0808182608083E5
:101CB00005C0EFE6F0E080818D7F80830E947A0589
:101CC000FF91EF91BF91AF919F918F917F916F9114
:101CD0005F914F913F912F91FF90EF90DF90CF90C8
:101CE0000F900FBE0F901F9018953F924F925F92EA
:101CF0006F927F928F929F92AF92BF92CF92DF921C
:101D0000EF92FF920F931F93CF93DF932B013C0130
:101D100049015A018FB78078382EF8948BE291E010
:101D20000E944505EC011B870A87FD86EC86DF864D
:101D3000CE86332061F0E0912501F09126010280EA
:101D4000F381E02D82819381A481B58108C08091C7
:101D5000480190914901A0914A01B0914B01480E70
:101D6000591E6A1E7B1E4A825B826C827D82181419
:101D700019041A041B0444F00F2E88248A94982C0A
:101D8000A82CFFE7BF2EF02D840C951CA61CB71CB9
:101D90008E829F82A886B9862091460130914701A4
:101DA000C901032E000CAA0BBB0BDC019927882765
:101DB000409184005091850060E070E0842B952B69
:101DC000A62BB72BB09B13C0C9010196092E000C9E
:101DD000AA0BBB0BDC019927882740918400509106
:101DE000850060E070E0842B952BA62BB72B481A5A
:101DF000590A6A0A7B0A1414150416041704ACF570
:101E00006CE471E0CE010E941405E0914C01F09168
:101E10004D01309721F182819381A481B581209178
:101E20004601309147012A173B07C9F49C014091B4
:101E3000840050918500841B950B019731F420910B
:101E40008400309185002F5F3F4F309389002093AD
:101E50008800EFE6F0E080818260808339C0EFE6A1
:101E6000F0E080818D7F808333C06EE471E0CE012D
:101E70000E94E304332061F18091290190912A01AD
:101E8000892B31F1E0914E01F0914F0186819781CC
:101E9000A085B185E0912701F09128010280F381AE
:101EA000E02D4681578160857185841B950BA60BBB
:101EB000B70B72F489E291E00E94700567E271E06D
:101EC0000E94660580912701909128010E94C30419
:101ED000332009F07894CE01DF91CF911F910F91BB
:101EE000FF90EF90DF90CF90BF90AF909F908F903A
:101EF0007F906F905F904F903F900895CF92DF92C8
:101F0000EF92FF920F931F93CF93DF93EC017B012E
:101F10006A011FB71078F894A881B981109719F455
:101F200035C0A081B1811496ED91FC911597309741
:101F3000C1F72091250130912601A217B30711F0B6
:101F4000111107C0112309F44AC078948FEF9FEF55
:101F50004EC08A819B81009719F0FC011582148282
:101F60003B832A83F901D583C483CD010E94C30436
:101F7000E0912501F091260182819381892B31F432
:101F8000112381F1789480E090E031C080912501A7
:101F90009091260199838883112329F08A819B815E
:101FA000019709F07894B601CE01F7010995F82E52
:101FB000092F8FB7F894198218828A819B81823009
:101FC000910538F01B821A82FC01158214820E944E
:101FD000C304112351F078948F2D902F08C08FEFF8
:101FE0009FEF05C080E090E002C08F2D902FDF9121
:101FF000CF911F910F91FF90EF90DF90CF900895B8
:1020000000912501109126018EE491E00E94450582
:10201000EC01F8019383828378946C857D854E85ED
:102020005F858A859B850E947E0F8FB7F8946BE24F
:1020300071E0CE010E945C05E0912701F09128013A
:102040000190F081E02DC281D381E0914E01F091A9
:102050004F013097A1F0209799F286819781A08552
:10206000B1854E815F8168857985841B950BA60BB0
:10207000B70B181619061A061B060CF0C1CF87E21B
:1020800091E00E94700569E271E00E946605A091EE
:102090002701B091280102C0A081B1811496ED9171
:1020A000FC9115973097C1F7CD010E94C304A8CFCA
:1020B000FC014231B8F49FB79078F89450E0440F97
:1020C000551FDA01A05BBE4FED93FC93DA01A851D6
:1020D000BE4F6D937C9321E030E0338322839923BC
:1020E00009F0789408958C017B016A018FB7F89408
:1020F0000E9424047894E114F10441F020E030E0DF
:10210000A90160E070E0CB010E94750E8FB7F894D2
:102110000E947C0D052E97FB1EF400940E94A110D6
:1021200057FD07D00E94A91007FC03D04EF40C9471
:10213000A11050954095309521953F4F4F4F5F4FDF
:10214000089590958095709561957F4F8F4F9F4F23
:102150000895A1E21A2EAA1BBB1BFD010DC0AA1FE8
:10216000BB1FEE1FFF1FA217B307E407F50720F000
:10217000A21BB30BE40BF50B661F771F881F991F7B
:102180001A9469F760957095809590959B01AC01C4
:10219000BD01CF010895DC012D923D924D925D92DB
:1021A0006D927D928D929D92AD92BD92CD92DD9277
:1021B000ED92FD920D931D93CD93DD93FF91EF91E1
:1021C0008DB78D938EB78D938FB78D93ED93FD93D0
:1021D000882799270994DC01CB0181309105811D65
:1021E0002D903D904D905D906D907D908D909D9047
:1021F000AD90BD90CD90DD90ED90FD900D911D9135
:10220000CD91DD91ED91FD910D90F894FEBF0FBE43
:0C221000EDBFED91FD910994F894FFCF13
:10221C00000000000C01000000000C010000000098
:10222C0042010000000000000000000000000A0055
:10223C0000000000000C020C027401290251151060
:10224C0001111E111B500B411B411F1101511F513C
:02225C001B0065
:00000001FF
