S00C00004C6162352E73726563D4
S11300000C942E000C9428060C9497060C94060766
S11300100C9475070C94E4070C944B000C944F0E4D
S11300200C944B000C94FD0D0C9453080C94C208D2
S11300300C9431090C94A0090C940F0A0C947E0AB8
S11300400C94ED0A0C945C0B0C94CB0B0C943A0CB2
S11300500C94A90C0C94180D0C94870D11241FBE3C
S1130060CFEFD4E0DEBFCDBF11E0A0E0B1E0EEEB16
S1130070F3E202C005900D92AC31B107D9F724E048
S1130080ACE1B1E001C01D92AF36B207E1F70E94C6
S11300904B040C94DD110C940000E1E6F0E080E8E0
S11300A080831082E1E8F0E080818D60808310928B
S11300B0850010928400EFE6F0E080818260808306
S11300C0E2ECF0E0F0938900E0938800A5ECB0E066
S11300D08C918C93A4ECB0E08C9183638C9388E92D
S11300E08093C10086E080830895CF92DF92EF92DF
S11300F0FF920F931F93FC0180899189A289B38990
S11301000197A109B109808B918BA28BB38B0681D6
S11301101781C12CD12C0F2EFEEDEF2EF3E0FF2E14
S1130120F02D20E030E0A90160E070E0CB010E94F6
S1130130EF0E80E090E01F910F91FF90EF90DF9021
S1130140CF900895CF92DF92EF92FF920F931F9377
S1130150CF93DF93FC01148A158A168A178A808D3F
S1130160882319F0DF011C9602C0DF01189688234A
S113017019F0EF01289602C0EF012C962D913C91C5
S113018012161306ACF491E08927808FC12CD12C70
S11301900F2EFCE0EF2EF1E0FF2EF02D8F0120E07A
S11301A030E0A90160E070E0CB010E94EF0E29C0AD
S11301B0888199811816190694F4C12CD12C0F2E1C
S11301C0FCE0EF2EF1E0FF2EF02D8F0120E030E077
S11301D0A90160E070E0CB010E94EF0E12C0C12CB7
S11301E0D12C0F2EF2EAEF2EF0E0FF2EF02D8F012E
S11301F020E030E0A90169E07DE380E090E00E9426
S1130200EF0E80E090E0DF91CF911F910F91FF906E
S1130210EF90DF90CF900895CF92DF92EF92FF920C
S11302200F931F93FC01208D222311F0389602C0F6
S1130230FC013C96222319F0DC011C9602C0DC016F
S1130240189620813181232B79F0FC01448955894A
S1130250668977894A30510561057105B8F02D9199
S11302603C911216130694F4C12CD12C0F2EF1EAF2
S1130270EF2EF1E0FF2EF02D8C0120E030E0A901FB
S113028060E070E0CB010E94EF0E11C0C12CD12CB4
S11302900F2EF0E6EF2EF1E0FF2EF02D8C0120E082
S11302A030E0A90160E070E0CB010E94EF0E80E035
S11302B090E01F910F91FF90EF90DF90CF90089501
S11302C0CF92DF92EF92FF920F931F93CF93DF931E
S11302D0EC01888D882321F0CC24C394D12C04C054
S11302E06894CC24C2F8D12C0C811D810F2EFDE81A
S11302F0EF2EF4E0FF2EF02D20E030E0A90160E0C5
S113030070E0CB010E94EF0EC12CD12C0F2EFAED20
S1130310EF2EF1E0FF2EF02D8E0120E030E0A90158
S113032069E07DE380E090E00E94EF0E80E090E0E1
S1130330DF91CF911F910F91FF90EF90DF90CF90BD
S11303400895CF92DF92EF92FF920F931F938C0147
S1130350FC0180899189A289B389892B8A2B8B2BF3
S113036089F4C12CD12C0F2EF2EAEF2EF0E0FF2EEF
S1130370F02D20E030E0A90160E070E0CB010E94A4
S1130380EF0E0FC00E94D210C12CD12C0F2EF1EA17
S1130390EF2EF1E0FF2EF02D20E030E0A9010E94C5
S11303A0EF0E80E090E01F910F91FF90EF90DF90AF
S11303B0CF900895CF92DF92EF92FF920F931F9305
S11303C0CF93DF93EC0188899989AA89BB89892B0A
S11303D08A2B8B2B89F1888D882329F06894CC246F
S11303E0C1F8D12C04C06894CC24C3F8D12C0C815E
S11303F01D810F2EFDE8EF2EF4E0FF2EF02D20E0FE
S113040030E0A90160E070E0CB010E94EF0E0E9491
S1130410D2106E5E75488F4F9F4FC12CD12C0F2E7A
S1130420FCE0EF2EF1E0FF2EF02D8E0120E030E015
S1130430A9010E94EF0E10C00E94D210C12CD12C31
S11304400F2EFAEDEF2EF1E0FF2EF02D8E0120E0BD
S113045030E0A9010E94EF0E80E090E0DF91CF919F
S11304601F910F91FF90EF90DF90CF900895BF926E
S1130470CF92DF92EF92FF920F931F93CF93DF936C
S1130480EC0140E050E066E974E08C819D810E94BB
S1130490F80FB82E80FF1DC088859985AA85BB8575
S11304A00196A11DB11D88879987AA87BB870E81F4
S11304B01F81C12CD12C0F2EFEEDEF2EF3E0FF2E69
S11304C0F02D20E030E0A90160E070E0CB010E9453
S11304D0EF0EB2FE1DC08C859D85AE85BF8501964D
S11304E0A11DB11D8C879D87AE87BF870E811F819B
S11304F0C12CD12C0F2EFEEDEF2EF3E0FF2EF02DAC
S113050020E030E0A90160E070E0CB010E94EF0E32
S1130510B1FE43C088859985AA85BB850197A10949
S1130520B10988879987AA87BB8788899989AA8905
S1130530BB890196A11DB11D888B998BAA8BBB8B9E
S11305408C899D89AE89BF890196A11DB11D8C8BB3
S11305509D8BAE8BBF8B0E811F81C12CD12C0F2E96
S1130560FEEDEF2EF3E0FF2EF02D20E030E0A901A8
S113057060E070E0CB010E94EF0E0F2EF5E7EF2E46
S1130580F0E0FF2EF02D8E0120E030E0A9016AE5B5
S113059072E682E090E00E94EF0EB3FE43C08C85C9
S11305A09D85AE85BF850197A109B1098C879D877B
S11305B0AE87BF8788899989AA89BB890196A11DBD
S11305C0B11D888B998BAA8BBB8B8C899D89AE8935
S11305D0BF890196A11DB11D8C8B9D8BAE8BBF8BEA
S11305E00E811F81C12CD12C0F2EFEEDEF2EF3E0D6
S11305F0FF2EF02D20E030E0A90160E070E0CB0197
S11306000E94EF0E0F2EF5E7EF2EF0E0FF2EF02DF7
S11306108E0120E030E0A9016AE572E682E090E014
S11306200E94EF0E80E090E0DF91CF911F910F9137
S1130630FF90EF90DF90CF90BF900895FC018085EC
S113064091850895FC01848595850895FC01808930
S11306509189089580EC8093E40087EB8093E50012
S11306608FE08093E70008956630710508F06BC051
S113067090ED980F9A3050F4E82FF0E0F097EE0FD9
S1130680FF1FE85FFE4F8081918102C080E090E00F
S1130690FB0177230CF43196F595E795E451FF4F70
S11306A061707078772334F4615071096E6F7F6FD5
S11306B06F5F7F4F660F771F660F771F30814FE0A4
S11306C050E0062E02C0440F551F0A94E2F7242F6F
S11306D02095AC014F705527062E02C0440F551FBC
S11306E00A94E2F73223432B40833581AC015295BF
S11306F042954F7045275F7045274F705527062E4A
S113070002C0440F551F0A94E2F73223432B45835A
S11307103285492F55274F705527062E02C0440FA6
S1130720551F0A94E2F73223432B42873785892FDA
S1130730992782958F7002C0880F991F6A95E2F7F6
S11307402323822B878708958F929F92AF92BF9223
S1130750CF92DF92EF92FF92CF93DF934B015C0134
S1130760EA0124E630E040E050E00E945B110F2EE5
S1130770FAE0CF2ED12CE12CF12CF02DA70196011B
S11307800E945B11BE0180E3820F0E943403219614
S1130790C501B401A70196010E945B11862FBE0119
S11307A0805D0E943403DF91CF91FF90EF90DF9042
S11307B0CF90BF90AF909F908F900895CF93DF9389
S11307C0EC0140E050E06EE173E08C819D810E9479
S11307D0F80FBC01990F880B990B40E050E00E9480
S11307E0A40340E050E066E273E08C819D810E94A6
S11307F0F80FBC01990F880B990B42E050E00E945E
S1130800A40340E050E062E273E08C819D810E9489
S1130810F80FBC01990F880B990B44E050E00E943B
S1130820A40380E090E0DF91CF910895CF92DF920E
S1130830EF92FF920F931F93CF93DF93EC01C12CA0
S1130840D12C0F2EFEEDEF2EF3E0FF2EF02D8C01B8
S113085020E030E0A90160E070E0CB010E94EF0EDF
S11308600C811D810F2EF2EAEF2EF0E0FF2EF02D09
S113087020E030E0A90160E070E0CB010E94EF0EBF
S113088080E090E0DF91CF911F910F91FF90EF9066
S1130890DF90CF9008950F931F93CF93DF93CDB73D
S11308A0DEB7A3970FB6F894DEBF0FBECDBF0E948C
S11308B04D000E942A031A8219821C821B82CE01D7
S11308C0059629E1FC0111922A95E9F79E012F5F13
S11308D03F4F3A8729871F8E1E8E19A218A29BA309
S11308E08AA38E01025E1F4F1C870B8748E067E3D3
S11308F072E00E94291140E050E066E174E0C80112
S11309000E944411A3960FB6F894DEBF0FBECDBF6C
S1130910DF91CF911F910F9108958091C00085FFC1
S1130920FCCF6093C60080E090E008958091C00001
S11309308823E4F78091C60090E00895CF93DF9375
S113094000D000D0CDB7DEB780E090E018C0AC0195
S11309504F5F5F4F9A0122953295307F3227207F77
S1130960322721503E4F82959295907F9827807F21
S11309709827FC01E150FE4F31832083CA018E3059
S113098091052CF31092E0021092DF0280E090E0D7
S113099015C0AC014F5F5F4F6DE1649F9001659F8F
S11309A0300D1124265B3E4F689FF001699FF00DC6
S11309B01124E65BFE4F31832083CA018330910505
S11309C044F31092A2011092A1011A82198232C03A
S11309D02DE149815A81249FC001259F900D112446
S11309E0FC01E05BFE4FFC83EB83CF010E949C1172
S11309F020E649815A81249FC001259F900D11242E
S1130A00855B9C4FEB81FC81918B808B938B828BDC
S1130A108AE790E1968B858B8DE1849FF001859F19
S1130A20F00D1124E65BFE4F158214824F5F5F4F79
S1130A305A83498329813A81243031054CF2E2EE0C
S1130A40F1E0118210821582148213821282E1E68F
S1130A50F0E080E880831082109285001092840078
S1130A6084E08093810081E080936F000F900F9069
S1130A700F900F90DF91CF910895CF93DF9300D023
S1130A80CDB7DEB79A8389838091000190910101EB
S1130A9006960E949C11892B59F489819A8190931E
S1130AA001018093000161E070E006960E94BC1190
S1130AB00F900F90DF91CF9108950F931F93CF93D1
S1130AC0DF93DC01CB01EB01E881F981C0E0D0E0E8
S1130AD004C0EF010190F081E02D309779F0068198
S1130AE017812085318516964D915D916D917C918C
S1130AF0199740175107620773075CF71196FC9327
S1130B00EE93209721F4FC01B183A08302C0B98342
S1130B10A883DF91CF911F910F9108950F931F9395
S1130B20CF93DF93DC01CB01EB01E881F981C0E0D5
S1130B30D0E004C0EF010190F081E02D309779F00E
S1130B40028113812481358112964D915D916D91BD
S1130B507C91159740175107620773075CF711964C
S1130B60FC93EE93209721F4FC01B183A08302C08F
S1130B70B983A883DF91CF911F910F910895DC0170
S1130B80ED91FC911197309759F48FEF8093EC001D
S1130B908093ED008093EE0081E083BF8895FCCFC5
S1130BA0208131812D933C93CF010895FB01208155
S1130BB03181FC0131832083FB019183808308957B
S1130BC0FB0120813181FC0131832083FB0191836E
S1130BD080830895DC01ED91FC911197208131818E
S1130BE02D933C93CF010895CF93DF93E0910201BD
S1130BF0F0910301C281D381E0912401F091250198
S1130C00309719F18091040190910501892BE9F045
S1130C10209769F086819781A085B1854E815F8197
S1130C2068857985841B950BA60BB70B72F484E059
S1130C3091E00E94EA0562E071E00E94E005809183
S1130C400201909103010E943D05DF91CF91089527
S1130C501F920F920FB60F9211240F931F932F938D
S1130C603F934F935F936F937F938F939F93AF9330
S1130C70BF93EF93FF9380911C0190911D01AC01F0
S1130C80092E000C660B770B9A011127002740915F
S1130C9084005091850060E070E0402B512B622B62
S1130CA0732B40931E0150931F0160932001709396
S1130CB02101B09B1AC00196092E000CAA0BBB0B94
S1130CC0BC01552744278091840090918500A0E0C1
S1130CD0B0E0842B952BA62BB72B80931E01909309
S1130CE01F01A0932001B0932101E091BE01F09176
S1130CF0BF01309739F060E070E080912601909157
S1130D00270109950E94F405FF91EF91BF91AF91DE
S1130D109F918F917F916F915F914F913F912F910F
S1130D201F910F910F900FBE0F901F9018951F9257
S1130D300F920FB60F9211240F931F932F933F938B
S1130D404F935F936F937F938F939F93AF93BF93CF
S1130D50EF93FF9380911C0190911D01AC01092E2A
S1130D60000C660B770B9A01112700274091840031
S1130D705091850060E070E0402B512B622B732B67
S1130D8040931E0150931F01609320017093210131
S1130D90B09B1AC00196092E000CAA0BBB0BBC0118
S1130DA0552744278091840090918500A0E0B0E00D
S1130DB0842B952BA62BB72B80931E0190931F0198
S1130DC0A0932001B0932101E091C001F091C101F1
S1130DD0309739F061E070E0809128019091290109
S1130DE009950E94F405FF91EF91BF91AF919F91F6
S1130DF08F917F916F915F914F913F912F911F91AF
S1130E000F910F900FBE0F901F9018951F920F9285
S1130E100FB60F9211240F931F932F933F934F9369
S1130E205F936F937F938F939F93AF93BF93EF934E
S1130E30FF9380911C0190911D01AC01092E000CBF
S1130E40660B770B9A01112700274091840050917B
S1130E50850060E070E0402B512B622B732B409394
S1130E601E0150931F016093200170932101B09BD8
S1130E701AC00196092E000CAA0BBB0BBC01552706
S1130E8044278091840090918500A0E0B0E0842BF9
S1130E90952BA62BB72B80931E0190931F01A09333
S1130EA02001B0932101E091C201F091C301309778
S1130EB039F062E070E080912A0190912B0109954C
S1130EC00E94F405FF91EF91BF91AF919F918F9193
S1130ED07F916F915F914F913F912F911F910F914E
S1130EE00F900FBE0F901F9018951F920F920FB680
S1130EF00F9211240F931F932F933F934F935F935C
S1130F006F937F938F939F93AF93BF93EF93FF93CD
S1130F1080911C0190911D01AC01092E000C660BFF
S1130F20770B9A0111270027409184005091850086
S1130F3060E070E0402B512B622B732B40931E0119
S1130F4050931F016093200170932101B09B1AC03C
S1130F500196092E000CAA0BBB0BBC015527442794
S1130F608091840090918500A0E0B0E0842B952BC3
S1130F70A62BB72B80931E0190931F01A0932001F1
S1130F80B0932101E091C401F091C501309739F08B
S1130F9063E070E080912C0190912D0109950E94ED
S1130FA0F405FF91EF91BF91AF919F918F917F9144
S1130FB06F915F914F913F912F911F910F910F90DE
S1130FC00FBE0F901F9018951F920F920FB60F929D
S1130FD011240F931F932F933F934F935F936F931A
S1130FE07F938F939F93AF93BF93EF93FF938091DE
S1130FF01C0190911D01AC01092E000C660B770BAE
S11310009A0111270027409184005091850060E0E7
S113101070E0402B512B622B732B40931E01509395
S11310201F016093200170932101B09B1AC00196A7
S1131030092E000CAA0BBB0BBC0155274427809139
S1131040840090918500A0E0B0E0842B952BA62B22
S1131050B72B80931E0190931F01A0932001B0939E
S11310602101E091C601F091C701309739F064E0A5
S113107070E080912E0190912F0109950E94F40552
S1131080FF91EF91BF91AF919F918F917F916F915C
S11310905F914F913F912F911F910F910F900FBE30
S11310A00F901F9018951F920F920FB60F92112454
S11310B00F931F932F933F934F935F936F937F935C
S11310C08F939F93AF93BF93EF93FF9380911C01F2
S11310D090911D01AC01092E000C660B770B9A014F
S11310E011270027409184005091850060E070E052
S11310F0402B512B622B732B40931E0150931F01E5
S11311006093200170932101B09B1AC00196092EAF
S1131110000CAA0BBB0BBC0155274427809184000B
S113112090918500A0E0B0E0842B952BA62BB72BE3
S113113080931E0190931F01A0932001B09321017D
S1131140E091C801F091C901309739F065E070E091
S1131150809130019091310109950E94F405FF912D
S1131160EF91BF91AF919F918F917F916F915F911B
S11311704F913F912F911F910F910F900FBE0F90A0
S11311801F9018951F920F920FB60F9211240F9370
S11311901F932F933F934F935F936F937F938F93FB
S11311A09F93AF93BF93EF93FF9380911C01909112
S11311B01D01AC01092E000C660B770B9A01112757
S11311C00027409184005091850060E070E0402B3E
S11311D0512B622B732B40931E0150931F0160937C
S11311E0200170932101B09B1AC00196092E000CB6
S11311F0AA0BBB0BBC015527442780918400909116
S11312008500A0E0B0E0842B952BA62BB72B809310
S11312101E0190931F01A0932001B0932101E0913E
S1131220CA01F091CB01309739F066E070E080910B
S113123032019091330109950E94F405FF91EF91D9
S1131240BF91AF919F918F917F916F915F914F91DA
S11312503F912F911F910F910F900FBE0F901F90F0
S113126018951F920F920FB60F9211240F931F938C
S11312702F933F934F935F936F937F938F939F939A
S1131280AF93BF93EF93FF9380911C0190911D0145
S1131290AC01092E000C660B770B9A01112700276D
S11312A0409184005091850060E070E0402B512B08
S11312B0622B732B40931E0150931F0160932001F6
S11312C070932101B09B1AC00196092E000CAA0B41
S11312D0BB0BBC0155274427809184009091850065
S11312E0A0E0B0E0842B952BA62BB72B80931E0196
S11312F090931F01A0932001B0932101E091CC01B0
S1131300F091CD01309739F067E070E080913401BD
S11313109091350109950E94F405FF91EF91BF91D9
S1131320AF919F918F917F916F915F914F913F9179
S11313302F911F910F910F900FBE0F901F90189532
S11313401F920F920FB60F9211240F931F932F9396
S11313503F934F935F936F937F938F939F93AF9339
S1131360BF93EF93FF9380911C0190911D01AC01F9
S1131370092E000C660B770B9A0111270027409168
S113138084005091850060E070E0402B512B622B6B
S1131390732B40931E0150931F016093200170939F
S11313A02101B09B1AC00196092E000CAA0BBB0B9D
S11313B0BC01552744278091840090918500A0E0CA
S11313C0B0E0842B952BA62BB72B80931E01909312
S11313D01F01A0932001B0932101E091CE01F0916F
S11313E0CF01309739F068E070E080913601909138
S11313F0370109950E94F405FF91EF91BF91AF91D8
S11314009F918F917F916F915F914F913F912F9118
S11314101F910F910F900FBE0F901F9018951F9260
S11314200F920FB60F9211240F931F932F933F9394
S11314304F935F936F937F938F939F93AF93BF93D8
S1131440EF93FF9380911C0190911D01AC01092E33
S1131450000C660B770B9A0111270027409184003A
S11314605091850060E070E0402B512B622B732B70
S113147040931E0150931F0160932001709321013A
S1131480B09B1AC00196092E000CAA0BBB0BBC0121
S1131490552744278091840090918500A0E0B0E016
S11314A0842B952BA62BB72B80931E0190931F01A1
S11314B0A0932001B0932101E091D001F091D101DA
S11314C0309739F069E070E08091380190913901EA
S11314D009950E94F405FF91EF91BF91AF919F91FF
S11314E08F917F916F915F914F913F912F911F91B8
S11314F00F910F900FBE0F901F9018951F920F928F
S11315000FB60F9211240F931F932F933F934F9372
S11315105F936F937F938F939F93AF93BF93EF9357
S1131520FF9380911C0190911D01AC01092E000CC8
S1131530660B770B9A011127002740918400509184
S1131540850060E070E0402B512B622B732B40939D
S11315501E0150931F016093200170932101B09BE1
S11315601AC00196092E000CAA0BBB0BBC0155270F
S113157044278091840090918500A0E0B0E0842B02
S1131580952BA62BB72B80931E0190931F01A0933C
S11315902001B0932101E091D201F091D301309761
S11315A039F06AE070E080913A0190913B0109952D
S11315B00E94F405FF91EF91BF91AF919F918F919C
S11315C07F916F915F914F913F912F911F910F9157
S11315D00F900FBE0F901F9018951F920F920FB689
S11315E00F9211240F931F932F933F934F935F9365
S11315F06F937F938F939F93AF93BF93EF93FF93D7
S113160080911C0190911D01AC01092E000C660B08
S1131610770B9A011127002740918400509185008F
S113162060E070E0402B512B622B732B40931E0122
S113163050931F016093200170932101B09B1AC045
S11316400196092E000CAA0BBB0BBC01552744279D
S11316508091840090918500A0E0B0E0842B952BCC
S1131660A62BB72B80931E0190931F01A0932001FA
S1131670B0932101E091D401F091D501309739F074
S11316806BE070E080913C0190913D0109950E94CE
S1131690F405FF91EF91BF91AF919F918F917F914D
S11316A06F915F914F913F912F911F910F910F90E7
S11316B00FBE0F901F9018951F920F920FB60F92A6
S11316C011240F931F932F933F934F935F936F9323
S11316D07F938F939F93AF93BF93EF93FF938091E7
S11316E01C0190911D01AC01092E000C660B770BB7
S11316F09A0111270027409184005091850060E0F1
S113170070E0402B512B622B732B40931E0150939E
S11317101F016093200170932101B09B1AC00196B0
S1131720092E000CAA0BBB0BBC0155274427809142
S1131730840090918500A0E0B0E0842B952BA62B2B
S1131740B72B80931E0190931F01A0932001B093A7
S11317502101E091D601F091D701309739F06CE086
S113176070E080913E0190913F0109950E94F4053B
S1131770FF91EF91BF91AF919F918F917F916F9165
S11317805F914F913F912F911F910F910F900FBE39
S11317900F901F9018951F920F920FB60F9211245D
S11317A00F931F932F933F934F935F936F937F9365
S11317B08F939F93AF93BF93EF93FF9380911C01FB
S11317C090911D01AC01092E000C660B770B9A0158
S11317D011270027409184005091850060E070E05B
S11317E0402B512B622B732B40931E0150931F01EE
S11317F06093200170932101B09B1AC00196092EB9
S1131800000CAA0BBB0BBC01552744278091840014
S113181090918500A0E0B0E0842B952BA62BB72BEC
S113182080931E0190931F01A0932001B093210186
S1131830E091D801F091D901309739F06DE070E072
S1131840809140019091410109950E94F405FF9116
S1131850EF91BF91AF919F918F917F916F915F9124
S11318604F913F912F911F910F910F900FBE0F90A9
S11318701F9018951F920F920FB60F9211240F9379
S11318801F932F933F934F935F936F937F938F9304
S11318909F93AF93BF93EF93FF9380911C0190911B
S11318A01D01AC01092E000C660B770B9A01112760
S11318B00027409184005091850060E070E0402B47
S11318C0512B622B732B40931E0150931F01609385
S11318D0200170932101B09B1AC00196092E000CBF
S11318E0AA0BBB0BBC01552744278091840090911F
S11318F08500A0E0B0E0842B952BA62BB72B80931A
S11319001E0190931F01A0932001B0932101E09147
S1131910DA01F091DB01309739F06EE070E08091EC
S113192042019091430109950E94F405FF91EF91C2
S1131930BF91AF919F918F917F916F915F914F91E3
S11319403F912F911F910F910F900FBE0F901F90F9
S113195018951F920F920FB60F9211240F931F9395
S11319602F933F934F935F936F937F938F939F93A3
S1131970AF93BF93EF93FF9380911C0190911D014E
S1131980AC01092E000C660B770B9A011127002776
S1131990409184005091850060E070E0402B512B11
S11319A0622B732B40931E0150931F0160932001FF
S11319B070932101B09B1AC00196092E000CAA0B4A
S11319C0BB0BBC015527442780918400909185006E
S11319D0A0E0B0E0842B952BA62BB72B80931E019F
S11319E090931F01A0932001B0932101E091DC01A9
S11319F0F091DD01309739F06FE070E0809144019F
S1131A009091450109950E94F405FF91EF91BF91D2
S1131A10AF919F918F917F916F915F914F913F9182
S1131A202F911F910F910F900FBE0F901F9018953B
S1131A301F920F920FB60F9211240F931F932F939F
S1131A403F934F935F936F937F938F939F93AF9342
S1131A50BF93EF93FF9380911C0190911D01AC0102
S1131A60092E000C660B770B9A0111270027409171
S1131A7084005091850060E070E0402B512B622B74
S1131A80732B40931E0150931F01609320017093A8
S1131A902101B09B1AC00196092E000CAA0BBB0BA6
S1131AA0BC01552744278091840090918500A0E0D3
S1131AB0B0E0842B952BA62BB72B80931E0190931B
S1131AC01F01A0932001B0932101E091DE01F09168
S1131AD0DF01309739F060E170E080914601909128
S1131AE0470109950E94F405FF91EF91BF91AF91D1
S1131AF09F918F917F916F915F914F913F912F9122
S1131B001F910F910F900FBE0F901F9018951F9269
S1131B100F920FB60F9211240F931F932F933F939D
S1131B204F935F936F937F938F939F93AF93BF93E1
S1131B30EF93FF9380911C0190911D01AC01092E3C
S1131B40000C660B770B9A01112700274091840043
S1131B505091850060E070E0402B512B622B732B79
S1131B6040931E0150931F01609320017093210143
S1131B70B09B1AC00196092E000CAA0BBB0BBC012A
S1131B80552744278091840090918500A0E0B0E01F
S1131B90842B952BA62BB72B80931E0190931F01AA
S1131BA0A0932001B0932101E091E001F091E101C3
S1131BB0309739F061E170E08091480190914901DA
S1131BC009950E94F405FF91EF91BF91AF919F9108
S1131BD08F917F916F915F914F913F912F911F91C1
S1131BE00F910F900FBE0F901F9018950E94F4054F
S1131BF0789481E083BF8895FCCF1F920F920FB633
S1131C000F9211242F933F934F935F936F937F937E
S1131C108F939F93EF93FF9380911C0190911D01EB
S1131C20019690931D0180931C01E0912201F09193
S1131C302301309701F142815381648175818617B4
S1131C409707C9F4CA012091840030918500421B92
S1131C50530B4130510529F4809184009091850003
S1131C6001969093890080938800EFE6F0E08081EC
S1131C708260808305C0EFE6F0E080818D7F808301
S1131C80FF91EF919F918F917F916F915F914F9110
S1131C903F912F910F900FBE0F901F9018951F9298
S1131CA00F920FB60F921124CF92DF92EF92FF9210
S1131CB02F933F934F935F936F937F938F939F9350
S1131CC0AF93BF93EF93FF9380911C0190911D01FB
S1131CD06C01092E000CEE08FF087601DD24CC24EB
S1131CE0409184005091850060E070E0C42AD52AB8
S1131CF0E62AF72AB09B1EC06C012FEFC21AD20A43
S1131D000D2C000CEE08FF08D60199278827C090F7
S1131D108400D0908500E12CF12CC82AD92AEA2A23
S1131D20FB2A08C082E291E00E94BF0564E271E0F0
S1131D300E945D05E0912201F0912301309769F042
S1131D4082819381A481B5818C199D09AE09BF0953
S1131D50181619061A061B062CF7309721F18281F2
S1131D609381A481B58120911C0130911D012A1712
S1131D703B07C9F49C014091840050918500841B69
S1131D80950B019731F420918400309185002F5FE9
S1131D903F4F3093890020938800EFE6F0E0808184
S1131DA08260808305C0EFE6F0E080818D7F8083D0
S1131DB00E94F405FF91EF91BF91AF919F918F9194
S1131DC07F916F915F914F913F912F91FF90EF9091
S1131DD0DF90CF900F900FBE0F901F9018953F92F9
S1131DE04F925F926F927F928F929F92AF92BF9227
S1131DF0CF92DF92EF92FF920F931F93CF93DF93D3
S1131E002B013C0149015A018FB78078382EF89490
S1131E1086E091E00E94BF05EC011B870A87FD86DE
S1131E20EC86DF86CE86332061F0E0910001F091EC
S1131E3001010280F381E02D82819381A481B58127
S1131E4008C080911E0190911F01A0912001B091C2
S1131E502101480E591E6A1E7B1E4A825B826C82D7
S1131E607D82181419041A041B0444F00F2E8824CC
S1131E708A94982CA82CFFE7BF2EF02D840C951C77
S1131E80A61CB71C8E829F82A886B98620911C014D
S1131E9030911D01C901032E000CAA0BBB0BDC0100
S1131EA099278827409184005091850060E070E074
S1131EB0842B952BA62BB72BB09B13C0C90101967D
S1131EC0092E000CAA0BBB0BDC0199278827409133
S1131ED084005091850060E070E0842B952BA62B44
S1131EE0B72B481A590A6A0A7B0A141415041604F3
S1131EF01704ACF562E271E0CE010E948E05E09118
S1131F002201F0912301309721F182819381A481F0
S1131F10B58120911C0130911D012A173B07C9F49A
S1131F209C014091840050918500841B950B01977E
S1131F3031F420918400309185002F5F3F4F30931E
S1131F40890020938800EFE6F0E08081826080833E
S1131F5039C0EFE6F0E080818D7F808333C064E296
S1131F6071E0CE010E945D05332061F1809104018E
S1131F7090910501892B31F1E0912401F091250123
S1131F8086819781A085B185E0910201F0910301DA
S1131F900280F381E02D4681578160857185841B21
S1131FA0950BA60BB70B72F484E091E00E94EA054E
S1131FB062E071E00E94E0058091020190910301CA
S1131FC00E943D05332009F07894CE01DF91CF9132
S1131FD01F910F91FF90EF90DF90CF90BF90AF9043
S1131FE09F908F907F906F905F904F903F90089557
S1131FF0CF92DF92EF92FF920F931F93CF93DF93D1
S1132000EC017B016A011FB71078F894A881B981AB
S1132010109719F435C0A081B1811496ED91FC910B
S113202015973097C1F72091000130910101A21753
S1132030B30711F0111107C0112309F44AC07894B1
S11320408FEF9FEF4EC08A819B81009719F0FC01AE
S1132050158214823B832A83F901D583C483CD017D
S11320600E943D05E0910001F0910101828193817C
S1132070892B31F4112381F1789480E090E031C010
S1132080809100019091010199838883112329F0A3
S11320908A819B81019709F07894B601CE01F701FA
S11320A00995F82E092F8FB7F894198218828A811E
S11320B09B818230910538F01B821A82FC011582C3
S11320C014820E943D05112351F078948F2D902F96
S11320D008C08FEF9FEF05C080E090E002C08F2D15
S11320E0902FDF91CF911F910F91FF90EF90DF9090
S11320F0CF900895009100011091010184E291E0D4
S11321000E94BF05EC01F8019383828378946C8567
S11321107D854E855F858A859B850E94F80F8FB7E4
S1132120F89466E071E0CE010E94D605E0910201C8
S1132130F09103010190F081E02DC281D381E091FF
S11321402401F09125013097A1F0209799F286811E
S11321509781A085B1854E815F8168857985841BCF
S1132160950BA60BB70B181619061A061B060CF0CE
S1132170C1CF82E091E00E94EA0564E071E00E9430
S1132180E005A0910201B091030102C0A081B181D8
S11321901496ED91FC9115973097C1F7CD010E94EB
S11321A03D05A8CFCF92DF92EF92FF922FB7207810
S11321B0F89440911C0150911D01CA01052E000C98
S11321C0AA0BBB0B7C01DD24CC248091840090916C
S11321D08500A0E0B0E08C299D29AE29BF29B09BE1
S11321E014C0BA016F5F7F4FCB01770FAA0BBB0BF3
S11321F0BC01552744278091840090918500A0E07C
S1132200B0E0842B952BA62BB72B222309F07894CE
S1132210222361F0E0910001F09101010280F38139
S1132220E02DC280D380E480F58008C0C0901E01F8
S1132230D0901F01E0902001F0902101BC01CD015C
S11322406C197D098E099F09FF90EF90DF90CF9064
S11322500895FC014231B8F49FB79078F89450E0A7
S1132260440F551FDA01AA5DBE4FED93FC93DA01CA
S1132270A254BE4F6D937C9321E030E033832283DC
S1132280992309F0789408958C017B016A018FB732
S1132290F8940E949E047894E114F10441F020E043
S11322A030E0A90160E070E0CB010E94EF0E8FB72F
S11322B0F8940E94F60D052E97FB1EF400940E94DC
S11322C0721157FD07D00E947A1107FC03D04EF417
S11322D00C94721150954095309521953F4F4F4F76
S11322E05F4F089590958095709561957F4F8F4FBE
S11322F09F4F0895A1E21A2EAA1BBB1BFD010DC01E
S1132300AA1FBB1FEE1FFF1FA217B307E407F507A1
S113231020F0A21BB30BE40BF50B661F771F881F7D
S1132320991F1A9469F760957095809590959B0113
S1132330AC01BD01CF010895DC012D923D924D9277
S11323405D926D927D928D929D92AD92BD92CD9251
S1132350DD92ED92FD920D931D93CD93DD93FF914C
S1132360EF918DB78D938EB78D938FB78D93ED933A
S1132370FD93882799270994DC01CB0181309105CD
S1132380811D2D903D904D905D906D907D908D9030
S11323909D90AD90BD90CD90DD90ED90FD900D9110
S11323A01D91CD91DD91ED91FD910D90F894FEBFBD
S11123B00FBEEDBFED91FD910994F894FFCF9F
S11323BEE201E2014A01FF0151151001111E111B28
S10F23CE500B411B411F1101511F511BFA
S9030000FC
